{
  "contractName": "CanvasN",
  "abi": [
    {
      "inputs": [
        {
          "internalType": "string",
          "name": "_name",
          "type": "string"
        },
        {
          "internalType": "string",
          "name": "_symbol",
          "type": "string"
        }
      ],
      "stateMutability": "nonpayable",
      "type": "constructor"
    },
    {
      "anonymous": false,
      "inputs": [
        {
          "indexed": true,
          "internalType": "address",
          "name": "owner",
          "type": "address"
        },
        {
          "indexed": true,
          "internalType": "address",
          "name": "approved",
          "type": "address"
        },
        {
          "indexed": true,
          "internalType": "uint256",
          "name": "tokenId",
          "type": "uint256"
        }
      ],
      "name": "Approval",
      "type": "event"
    },
    {
      "anonymous": false,
      "inputs": [
        {
          "indexed": true,
          "internalType": "address",
          "name": "owner",
          "type": "address"
        },
        {
          "indexed": true,
          "internalType": "address",
          "name": "operator",
          "type": "address"
        },
        {
          "indexed": false,
          "internalType": "bool",
          "name": "approved",
          "type": "bool"
        }
      ],
      "name": "ApprovalForAll",
      "type": "event"
    },
    {
      "anonymous": false,
      "inputs": [
        {
          "indexed": true,
          "internalType": "address",
          "name": "previousOwner",
          "type": "address"
        },
        {
          "indexed": true,
          "internalType": "address",
          "name": "newOwner",
          "type": "address"
        }
      ],
      "name": "OwnershipTransferred",
      "type": "event"
    },
    {
      "anonymous": false,
      "inputs": [
        {
          "indexed": true,
          "internalType": "address",
          "name": "from",
          "type": "address"
        },
        {
          "indexed": true,
          "internalType": "address",
          "name": "to",
          "type": "address"
        },
        {
          "indexed": true,
          "internalType": "uint256",
          "name": "tokenId",
          "type": "uint256"
        }
      ],
      "name": "Transfer",
      "type": "event"
    },
    {
      "inputs": [
        {
          "internalType": "address",
          "name": "to",
          "type": "address"
        },
        {
          "internalType": "uint256",
          "name": "tokenId",
          "type": "uint256"
        }
      ],
      "name": "approve",
      "outputs": [],
      "stateMutability": "nonpayable",
      "type": "function"
    },
    {
      "inputs": [
        {
          "internalType": "address",
          "name": "owner",
          "type": "address"
        }
      ],
      "name": "balanceOf",
      "outputs": [
        {
          "internalType": "uint256",
          "name": "",
          "type": "uint256"
        }
      ],
      "stateMutability": "view",
      "type": "function"
    },
    {
      "inputs": [],
      "name": "baseExtension",
      "outputs": [
        {
          "internalType": "string",
          "name": "",
          "type": "string"
        }
      ],
      "stateMutability": "view",
      "type": "function"
    },
    {
      "inputs": [],
      "name": "baseURI",
      "outputs": [
        {
          "internalType": "string",
          "name": "",
          "type": "string"
        }
      ],
      "stateMutability": "view",
      "type": "function"
    },
    {
      "inputs": [
        {
          "internalType": "uint256",
          "name": "tokenId",
          "type": "uint256"
        }
      ],
      "name": "getApproved",
      "outputs": [
        {
          "internalType": "address",
          "name": "",
          "type": "address"
        }
      ],
      "stateMutability": "view",
      "type": "function"
    },
    {
      "inputs": [
        {
          "internalType": "address",
          "name": "owner",
          "type": "address"
        },
        {
          "internalType": "address",
          "name": "operator",
          "type": "address"
        }
      ],
      "name": "isApprovedForAll",
      "outputs": [
        {
          "internalType": "bool",
          "name": "",
          "type": "bool"
        }
      ],
      "stateMutability": "view",
      "type": "function"
    },
    {
      "inputs": [],
      "name": "lockNft",
      "outputs": [
        {
          "internalType": "bool",
          "name": "",
          "type": "bool"
        }
      ],
      "stateMutability": "view",
      "type": "function"
    },
    {
      "inputs": [],
      "name": "maxMintAmount",
      "outputs": [
        {
          "internalType": "uint256",
          "name": "",
          "type": "uint256"
        }
      ],
      "stateMutability": "view",
      "type": "function"
    },
    {
      "inputs": [],
      "name": "maxMintPerSale",
      "outputs": [
        {
          "internalType": "uint256",
          "name": "",
          "type": "uint256"
        }
      ],
      "stateMutability": "view",
      "type": "function"
    },
    {
      "inputs": [],
      "name": "maxSupply",
      "outputs": [
        {
          "internalType": "uint256",
          "name": "",
          "type": "uint256"
        }
      ],
      "stateMutability": "view",
      "type": "function"
    },
    {
      "inputs": [],
      "name": "name",
      "outputs": [
        {
          "internalType": "string",
          "name": "",
          "type": "string"
        }
      ],
      "stateMutability": "view",
      "type": "function"
    },
    {
      "inputs": [],
      "name": "notRevealedUri",
      "outputs": [
        {
          "internalType": "string",
          "name": "",
          "type": "string"
        }
      ],
      "stateMutability": "view",
      "type": "function"
    },
    {
      "inputs": [],
      "name": "owner",
      "outputs": [
        {
          "internalType": "address",
          "name": "",
          "type": "address"
        }
      ],
      "stateMutability": "view",
      "type": "function"
    },
    {
      "inputs": [
        {
          "internalType": "uint256",
          "name": "tokenId",
          "type": "uint256"
        }
      ],
      "name": "ownerOf",
      "outputs": [
        {
          "internalType": "address",
          "name": "",
          "type": "address"
        }
      ],
      "stateMutability": "view",
      "type": "function"
    },
    {
      "inputs": [],
      "name": "price",
      "outputs": [
        {
          "internalType": "uint256",
          "name": "",
          "type": "uint256"
        }
      ],
      "stateMutability": "view",
      "type": "function"
    },
    {
      "inputs": [],
      "name": "publicMintEnabled",
      "outputs": [
        {
          "internalType": "bool",
          "name": "",
          "type": "bool"
        }
      ],
      "stateMutability": "view",
      "type": "function"
    },
    {
      "inputs": [],
      "name": "renounceOwnership",
      "outputs": [],
      "stateMutability": "nonpayable",
      "type": "function"
    },
    {
      "inputs": [],
      "name": "revealed",
      "outputs": [
        {
          "internalType": "bool",
          "name": "",
          "type": "bool"
        }
      ],
      "stateMutability": "view",
      "type": "function"
    },
    {
      "inputs": [
        {
          "internalType": "address",
          "name": "from",
          "type": "address"
        },
        {
          "internalType": "address",
          "name": "to",
          "type": "address"
        },
        {
          "internalType": "uint256",
          "name": "tokenId",
          "type": "uint256"
        }
      ],
      "name": "safeTransferFrom",
      "outputs": [],
      "stateMutability": "nonpayable",
      "type": "function"
    },
    {
      "inputs": [
        {
          "internalType": "address",
          "name": "from",
          "type": "address"
        },
        {
          "internalType": "address",
          "name": "to",
          "type": "address"
        },
        {
          "internalType": "uint256",
          "name": "tokenId",
          "type": "uint256"
        },
        {
          "internalType": "bytes",
          "name": "_data",
          "type": "bytes"
        }
      ],
      "name": "safeTransferFrom",
      "outputs": [],
      "stateMutability": "nonpayable",
      "type": "function"
    },
    {
      "inputs": [
        {
          "internalType": "address",
          "name": "operator",
          "type": "address"
        },
        {
          "internalType": "bool",
          "name": "approved",
          "type": "bool"
        }
      ],
      "name": "setApprovalForAll",
      "outputs": [],
      "stateMutability": "nonpayable",
      "type": "function"
    },
    {
      "inputs": [
        {
          "internalType": "bytes4",
          "name": "interfaceId",
          "type": "bytes4"
        }
      ],
      "name": "supportsInterface",
      "outputs": [
        {
          "internalType": "bool",
          "name": "",
          "type": "bool"
        }
      ],
      "stateMutability": "view",
      "type": "function"
    },
    {
      "inputs": [],
      "name": "symbol",
      "outputs": [
        {
          "internalType": "string",
          "name": "",
          "type": "string"
        }
      ],
      "stateMutability": "view",
      "type": "function"
    },
    {
      "inputs": [
        {
          "internalType": "address",
          "name": "newOwner",
          "type": "address"
        }
      ],
      "name": "transferOwnership",
      "outputs": [],
      "stateMutability": "nonpayable",
      "type": "function"
    },
    {
      "inputs": [
        {
          "internalType": "address",
          "name": "_user",
          "type": "address"
        }
      ],
      "name": "getYesOrNoWhiteList",
      "outputs": [
        {
          "internalType": "bool",
          "name": "",
          "type": "bool"
        }
      ],
      "stateMutability": "view",
      "type": "function"
    },
    {
      "inputs": [
        {
          "internalType": "address",
          "name": "from",
          "type": "address"
        },
        {
          "internalType": "address",
          "name": "to",
          "type": "address"
        },
        {
          "internalType": "uint256",
          "name": "tokenId",
          "type": "uint256"
        }
      ],
      "name": "transferFrom",
      "outputs": [],
      "stateMutability": "nonpayable",
      "type": "function"
    },
    {
      "inputs": [
        {
          "internalType": "uint256",
          "name": "_requestedAmount",
          "type": "uint256"
        }
      ],
      "name": "publicMint",
      "outputs": [],
      "stateMutability": "payable",
      "type": "function"
    },
    {
      "inputs": [
        {
          "internalType": "uint256",
          "name": "_requestedAmount",
          "type": "uint256"
        }
      ],
      "name": "whiteListSale",
      "outputs": [],
      "stateMutability": "payable",
      "type": "function"
    },
    {
      "inputs": [
        {
          "internalType": "address",
          "name": "_reciever",
          "type": "address"
        },
        {
          "internalType": "uint256",
          "name": "_requestedCount",
          "type": "uint256"
        }
      ],
      "name": "airDropMint",
      "outputs": [],
      "stateMutability": "nonpayable",
      "type": "function"
    },
    {
      "inputs": [
        {
          "internalType": "uint256",
          "name": "_tokenId",
          "type": "uint256"
        }
      ],
      "name": "tokenURI",
      "outputs": [
        {
          "internalType": "string",
          "name": "",
          "type": "string"
        }
      ],
      "stateMutability": "view",
      "type": "function"
    },
    {
      "inputs": [
        {
          "internalType": "bool",
          "name": "_type",
          "type": "bool"
        }
      ],
      "name": "reveal",
      "outputs": [],
      "stateMutability": "nonpayable",
      "type": "function"
    },
    {
      "inputs": [
        {
          "internalType": "bool",
          "name": "_type",
          "type": "bool"
        }
      ],
      "name": "setLockNft",
      "outputs": [],
      "stateMutability": "nonpayable",
      "type": "function"
    },
    {
      "inputs": [
        {
          "internalType": "bool",
          "name": "_type",
          "type": "bool"
        }
      ],
      "name": "setSaleState",
      "outputs": [],
      "stateMutability": "nonpayable",
      "type": "function"
    },
    {
      "inputs": [
        {
          "internalType": "uint256",
          "name": "_price",
          "type": "uint256"
        },
        {
          "internalType": "uint256",
          "name": "_maxSupply",
          "type": "uint256"
        },
        {
          "internalType": "uint256",
          "name": "_maxMintAmount",
          "type": "uint256"
        },
        {
          "internalType": "uint256",
          "name": "_maxMintPerSale",
          "type": "uint256"
        }
      ],
      "name": "setupPublicSale",
      "outputs": [],
      "stateMutability": "nonpayable",
      "type": "function"
    },
    {
      "inputs": [
        {
          "internalType": "uint256",
          "name": "_newPrice",
          "type": "uint256"
        }
      ],
      "name": "setPrice",
      "outputs": [],
      "stateMutability": "nonpayable",
      "type": "function"
    },
    {
      "inputs": [
        {
          "internalType": "uint256",
          "name": "_newMaxMintAmount",
          "type": "uint256"
        }
      ],
      "name": "setMaxMintAmount",
      "outputs": [],
      "stateMutability": "nonpayable",
      "type": "function"
    },
    {
      "inputs": [
        {
          "internalType": "uint256",
          "name": "_maxSupply",
          "type": "uint256"
        }
      ],
      "name": "setMaxSupply",
      "outputs": [],
      "stateMutability": "nonpayable",
      "type": "function"
    },
    {
      "inputs": [
        {
          "internalType": "uint256",
          "name": "_maxMintPerSale",
          "type": "uint256"
        }
      ],
      "name": "setMaxMintPerSale",
      "outputs": [],
      "stateMutability": "nonpayable",
      "type": "function"
    },
    {
      "inputs": [
        {
          "internalType": "string",
          "name": "_notRevealedURI",
          "type": "string"
        }
      ],
      "name": "setNotRevealedURI",
      "outputs": [],
      "stateMutability": "nonpayable",
      "type": "function"
    },
    {
      "inputs": [
        {
          "internalType": "string",
          "name": "_newBaseURI",
          "type": "string"
        }
      ],
      "name": "setBaseURI",
      "outputs": [],
      "stateMutability": "nonpayable",
      "type": "function"
    },
    {
      "inputs": [
        {
          "internalType": "string",
          "name": "_newBaseExtension",
          "type": "string"
        }
      ],
      "name": "setBaseExtension",
      "outputs": [],
      "stateMutability": "nonpayable",
      "type": "function"
    },
    {
      "inputs": [
        {
          "internalType": "address",
          "name": "_user",
          "type": "address"
        }
      ],
      "name": "whitelistUser",
      "outputs": [],
      "stateMutability": "nonpayable",
      "type": "function"
    },
    {
      "inputs": [
        {
          "internalType": "address",
          "name": "_user",
          "type": "address"
        }
      ],
      "name": "removeWhitelistUser",
      "outputs": [],
      "stateMutability": "nonpayable",
      "type": "function"
    }
  ],
  "bytecode": "0x60806040526040518060400160405280600581526020017f2e6a736f6e00000000000000000000000000000000000000000000000000000081525060099080519060200190620000519291906200020d565b5066b1a2bc2ec50000600b556000600f60006101000a81548160ff0219169083151502179055506000600f60016101000a81548160ff0219169083151502179055506000600f60026101000a81548160ff021916908315150217905550348015620000bb57600080fd5b5060405162004d6e38038062004d6e8339818101604052810190620000e191906200045a565b81818160009080519060200190620000fb9291906200020d565b508060019080519060200190620001149291906200020d565b505050620001376200012b6200013f60201b60201c565b6200014760201b60201c565b505062000544565b600033905090565b6000600660009054906101000a900473ffffffffffffffffffffffffffffffffffffffff16905081600660006101000a81548173ffffffffffffffffffffffffffffffffffffffff021916908373ffffffffffffffffffffffffffffffffffffffff1602179055508173ffffffffffffffffffffffffffffffffffffffff168173ffffffffffffffffffffffffffffffffffffffff167f8be0079c531659141344cd1fd0a4f28419497f9722a3daafe3b4186f6b6457e060405160405180910390a35050565b8280546200021b906200050e565b90600052602060002090601f0160209004810192826200023f57600085556200028b565b82601f106200025a57805160ff19168380011785556200028b565b828001600101855582156200028b579182015b828111156200028a5782518255916020019190600101906200026d565b5b5090506200029a91906200029e565b5090565b5b80821115620002b95760008160009055506001016200029f565b5090565b6000604051905090565b600080fd5b600080fd5b600080fd5b600080fd5b6000601f19601f8301169050919050565b7f4e487b7100000000000000000000000000000000000000000000000000000000600052604160045260246000fd5b6200032682620002db565b810181811067ffffffffffffffff82111715620003485762000347620002ec565b5b80604052505050565b60006200035d620002bd565b90506200036b82826200031b565b919050565b600067ffffffffffffffff8211156200038e576200038d620002ec565b5b6200039982620002db565b9050602081019050919050565b60005b83811015620003c6578082015181840152602081019050620003a9565b83811115620003d6576000848401525b50505050565b6000620003f3620003ed8462000370565b62000351565b905082815260208101848484011115620004125762000411620002d6565b5b6200041f848285620003a6565b509392505050565b600082601f8301126200043f576200043e620002d1565b5b815162000451848260208601620003dc565b91505092915050565b60008060408385031215620004745762000473620002c7565b5b600083015167ffffffffffffffff811115620004955762000494620002cc565b5b620004a38582860162000427565b925050602083015167ffffffffffffffff811115620004c757620004c6620002cc565b5b620004d58582860162000427565b9150509250929050565b7f4e487b7100000000000000000000000000000000000000000000000000000000600052602260045260246000fd5b600060028204905060018216806200052757607f821691505b602082108114156200053e576200053d620004df565b5b50919050565b61481a80620005546000396000f3fe60806040526004361061025c5760003560e01c8063715018a611610144578063b88d4fde116100b6578063ce7f19011161007a578063ce7f1901146108b2578063d5abeb01146108db578063da3ef23f14610906578063e985e9c51461092f578063f2c4ce1e1461096c578063f2fde38b146109955761025c565b8063b88d4fde146107bb578063c01aa1a6146107e4578063c4e3709514610821578063c66828621461084a578063c87b56dd146108755761025c565b806395d89b411161010857806395d89b41146106ca5780639c5bfeae146106f5578063a035b1fe14610720578063a22cb4651461074b578063a826b82114610774578063b85eb6741461079f5761025c565b8063715018a61461060d57806375a1ed08146106245780638da5cb5b1461064d57806391b7f5ed14610678578063940cd05b146106a15761025c565b806330cc7ae0116101dd57806351830227116101a157806351830227146104eb57806355f804b3146105165780636352211e1461053f5780636c0360eb1461057c5780636f8b44b0146105a757806370a08231146105d05761025c565b806330cc7ae01461041e578063361329fd1461044757806342842e0e146104705780634a4c560d146104995780634e42324c146104c25761025c565b8063095ea7b311610224578063095ea7b31461035a5780630f4161aa14610383578063239c70ae146103ae57806323b872dd146103d95780632db11544146104025761025c565b806301ffc9a71461026157806306fdde031461029e578063081812fc146102c9578063081c8c4414610306578063088a4ed014610331575b600080fd5b34801561026d57600080fd5b5061028860048036038101906102839190613147565b6109be565b604051610295919061318f565b60405180910390f35b3480156102aa57600080fd5b506102b3610aa0565b6040516102c09190613243565b60405180910390f35b3480156102d557600080fd5b506102f060048036038101906102eb919061329b565b610b32565b6040516102fd9190613309565b60405180910390f35b34801561031257600080fd5b5061031b610bb7565b6040516103289190613243565b60405180910390f35b34801561033d57600080fd5b506103586004803603810190610353919061329b565b610c45565b005b34801561036657600080fd5b50610381600480360381019061037c9190613350565b610ccb565b005b34801561038f57600080fd5b50610398610de3565b6040516103a5919061318f565b60405180910390f35b3480156103ba57600080fd5b506103c3610df6565b6040516103d0919061339f565b60405180910390f35b3480156103e557600080fd5b5061040060048036038101906103fb91906133ba565b610dfc565b005b61041c6004803603810190610417919061329b565b610e7c565b005b34801561042a57600080fd5b506104456004803603810190610440919061340d565b611073565b005b34801561045357600080fd5b5061046e6004803603810190610469919061343a565b61114a565b005b34801561047c57600080fd5b50610497600480360381019061049291906133ba565b6111fa565b005b3480156104a557600080fd5b506104c060048036038101906104bb919061340d565b61121a565b005b3480156104ce57600080fd5b506104e960048036038101906104e491906134cd565b6112f1565b005b3480156104f757600080fd5b5061050061138a565b60405161050d919061318f565b60405180910390f35b34801561052257600080fd5b5061053d6004803603810190610538919061362f565b61139d565b005b34801561054b57600080fd5b506105666004803603810190610561919061329b565b611433565b6040516105739190613309565b60405180910390f35b34801561058857600080fd5b506105916114e5565b60405161059e9190613243565b60405180910390f35b3480156105b357600080fd5b506105ce60048036038101906105c9919061329b565b611573565b005b3480156105dc57600080fd5b506105f760048036038101906105f2919061340d565b6115f9565b604051610604919061339f565b60405180910390f35b34801561061957600080fd5b506106226116b1565b005b34801561063057600080fd5b5061064b60048036038101906106469190613350565b611739565b005b34801561065957600080fd5b50610662611849565b60405161066f9190613309565b60405180910390f35b34801561068457600080fd5b5061069f600480360381019061069a919061329b565b611873565b005b3480156106ad57600080fd5b506106c860048036038101906106c391906134cd565b61190b565b005b3480156106d657600080fd5b506106df6119a4565b6040516106ec9190613243565b60405180910390f35b34801561070157600080fd5b5061070a611a36565b604051610717919061318f565b60405180910390f35b34801561072c57600080fd5b50610735611a49565b604051610742919061339f565b60405180910390f35b34801561075757600080fd5b50610772600480360381019061076d9190613678565b611a4f565b005b34801561078057600080fd5b50610789611a65565b604051610796919061339f565b60405180910390f35b6107b960048036038101906107b4919061329b565b611a6b565b005b3480156107c757600080fd5b506107e260048036038101906107dd9190613759565b611caa565b005b3480156107f057600080fd5b5061080b6004803603810190610806919061340d565b611d0c565b604051610818919061318f565b60405180910390f35b34801561082d57600080fd5b50610848600480360381019061084391906134cd565b611d62565b005b34801561085657600080fd5b5061085f611dfb565b60405161086c9190613243565b60405180910390f35b34801561088157600080fd5b5061089c6004803603810190610897919061329b565b611e89565b6040516108a99190613243565b60405180910390f35b3480156108be57600080fd5b506108d960048036038101906108d4919061329b565b611f6a565b005b3480156108e757600080fd5b506108f0611ff0565b6040516108fd919061339f565b60405180910390f35b34801561091257600080fd5b5061092d6004803603810190610928919061362f565b611ff6565b005b34801561093b57600080fd5b50610956600480360381019061095191906137dc565b61208c565b604051610963919061318f565b60405180910390f35b34801561097857600080fd5b50610993600480360381019061098e919061362f565b612120565b005b3480156109a157600080fd5b506109bc60048036038101906109b7919061340d565b6121b6565b005b60007f80ac58cd000000000000000000000000000000000000000000000000000000007bffffffffffffffffffffffffffffffffffffffffffffffffffffffff1916827bffffffffffffffffffffffffffffffffffffffffffffffffffffffff19161480610a8957507f5b5e139f000000000000000000000000000000000000000000000000000000007bffffffffffffffffffffffffffffffffffffffffffffffffffffffff1916827bffffffffffffffffffffffffffffffffffffffffffffffffffffffff1916145b80610a995750610a98826122ae565b5b9050919050565b606060008054610aaf9061384b565b80601f0160208091040260200160405190810160405280929190818152602001828054610adb9061384b565b8015610b285780601f10610afd57610100808354040283529160200191610b28565b820191906000526020600020905b815481529060010190602001808311610b0b57829003601f168201915b5050505050905090565b6000610b3d82612318565b610b7c576040517f08c379a0000000000000000000000000000000000000000000000000000000008152600401610b73906138ef565b60405180910390fd5b6004600083815260200190815260200160002060009054906101000a900473ffffffffffffffffffffffffffffffffffffffff169050919050565b600a8054610bc49061384b565b80601f0160208091040260200160405190810160405280929190818152602001828054610bf09061384b565b8015610c3d5780601f10610c1257610100808354040283529160200191610c3d565b820191906000526020600020905b815481529060010190602001808311610c2057829003601f168201915b505050505081565b610c4d612384565b73ffffffffffffffffffffffffffffffffffffffff16610c6b611849565b73ffffffffffffffffffffffffffffffffffffffff1614610cc1576040517f08c379a0000000000000000000000000000000000000000000000000000000008152600401610cb89061395b565b60405180910390fd5b80600d8190555050565b6000610cd682611433565b90508073ffffffffffffffffffffffffffffffffffffffff168373ffffffffffffffffffffffffffffffffffffffff161415610d47576040517f08c379a0000000000000000000000000000000000000000000000000000000008152600401610d3e906139ed565b60405180910390fd5b8073ffffffffffffffffffffffffffffffffffffffff16610d66612384565b73ffffffffffffffffffffffffffffffffffffffff161480610d955750610d9481610d8f612384565b61208c565b5b610dd4576040517f08c379a0000000000000000000000000000000000000000000000000000000008152600401610dcb90613a7f565b60405180910390fd5b610dde838361238c565b505050565b600f60019054906101000a900460ff1681565b600d5481565b60011515600f60029054906101000a900460ff16151514610e1c57600080fd5b610e2d610e27612384565b82612445565b610e6c576040517f08c379a0000000000000000000000000000000000000000000000000000000008152600401610e6390613b11565b60405180910390fd5b610e77838383612523565b505050565b6000610e88600761278a565b9050600f60019054906101000a900460ff16610ed9576040517f08c379a0000000000000000000000000000000000000000000000000000000008152600401610ed090613b7d565b60405180910390fd5b6001600c54610ee89190613bcc565b8282610ef49190613bcc565b1115610f35576040517f08c379a0000000000000000000000000000000000000000000000000000000008152600401610f2c90613c6e565b60405180910390fd5b600082118015610f475750600d548211155b610f86576040517f08c379a0000000000000000000000000000000000000000000000000000000008152600401610f7d90613d00565b60405180910390fd5b81600b54610f949190613d20565b3414610fd5576040517f08c379a0000000000000000000000000000000000000000000000000000000008152600401610fcc90613dc6565b60405180910390fd5b600e5482610fe2336115f9565b610fec9190613bcc565b111561102d576040517f08c379a000000000000000000000000000000000000000000000000000000000815260040161102490613e32565b60405180910390fd5b6000600190505b82811161106e576110513360018461104c9190613bcc565b612798565b61105b60076127b6565b808061106690613e52565b915050611034565b505050565b61107b612384565b73ffffffffffffffffffffffffffffffffffffffff16611099611849565b73ffffffffffffffffffffffffffffffffffffffff16146110ef576040517f08c379a00000000000000000000000000000000000000000000000000000000081526004016110e69061395b565b60405180910390fd5b6000601060008373ffffffffffffffffffffffffffffffffffffffff1673ffffffffffffffffffffffffffffffffffffffff16815260200190815260200160002060006101000a81548160ff02191690831515021790555050565b611152612384565b73ffffffffffffffffffffffffffffffffffffffff16611170611849565b73ffffffffffffffffffffffffffffffffffffffff16146111c6576040517f08c379a00000000000000000000000000000000000000000000000000000000081526004016111bd9061395b565b60405180910390fd5b8366038d7ea4c680006111d99190613d20565b600b8190555082600c8190555081600d8190555080600e8190555050505050565b61121583838360405180602001604052806000815250611caa565b505050565b611222612384565b73ffffffffffffffffffffffffffffffffffffffff16611240611849565b73ffffffffffffffffffffffffffffffffffffffff1614611296576040517f08c379a000000000000000000000000000000000000000000000000000000000815260040161128d9061395b565b60405180910390fd5b6001601060008373ffffffffffffffffffffffffffffffffffffffff1673ffffffffffffffffffffffffffffffffffffffff16815260200190815260200160002060006101000a81548160ff02191690831515021790555050565b6112f9612384565b73ffffffffffffffffffffffffffffffffffffffff16611317611849565b73ffffffffffffffffffffffffffffffffffffffff161461136d576040517f08c379a00000000000000000000000000000000000000000000000000000000081526004016113649061395b565b60405180910390fd5b80600f60026101000a81548160ff02191690831515021790555050565b600f60009054906101000a900460ff1681565b6113a5612384565b73ffffffffffffffffffffffffffffffffffffffff166113c3611849565b73ffffffffffffffffffffffffffffffffffffffff1614611419576040517f08c379a00000000000000000000000000000000000000000000000000000000081526004016114109061395b565b60405180910390fd5b806008908051906020019061142f929190613038565b5050565b6000806002600084815260200190815260200160002060009054906101000a900473ffffffffffffffffffffffffffffffffffffffff169050600073ffffffffffffffffffffffffffffffffffffffff168173ffffffffffffffffffffffffffffffffffffffff1614156114dc576040517f08c379a00000000000000000000000000000000000000000000000000000000081526004016114d390613f0d565b60405180910390fd5b80915050919050565b600880546114f29061384b565b80601f016020809104026020016040519081016040528092919081815260200182805461151e9061384b565b801561156b5780601f106115405761010080835404028352916020019161156b565b820191906000526020600020905b81548152906001019060200180831161154e57829003601f168201915b505050505081565b61157b612384565b73ffffffffffffffffffffffffffffffffffffffff16611599611849565b73ffffffffffffffffffffffffffffffffffffffff16146115ef576040517f08c379a00000000000000000000000000000000000000000000000000000000081526004016115e69061395b565b60405180910390fd5b80600c8190555050565b60008073ffffffffffffffffffffffffffffffffffffffff168273ffffffffffffffffffffffffffffffffffffffff16141561166a576040517f08c379a000000000000000000000000000000000000000000000000000000000815260040161166190613f9f565b60405180910390fd5b600360008373ffffffffffffffffffffffffffffffffffffffff1673ffffffffffffffffffffffffffffffffffffffff168152602001908152602001600020549050919050565b6116b9612384565b73ffffffffffffffffffffffffffffffffffffffff166116d7611849565b73ffffffffffffffffffffffffffffffffffffffff161461172d576040517f08c379a00000000000000000000000000000000000000000000000000000000081526004016117249061395b565b60405180910390fd5b61173760006127cc565b565b611741612384565b73ffffffffffffffffffffffffffffffffffffffff1661175f611849565b73ffffffffffffffffffffffffffffffffffffffff16146117b5576040517f08c379a00000000000000000000000000000000000000000000000000000000081526004016117ac9061395b565b60405180910390fd5b600081116117f8576040517f08c379a00000000000000000000000000000000000000000000000000000000081526004016117ef9061400b565b60405180910390fd5b6000611804600761278a565b905060005b82811015611843576118268482846118219190613bcc565b612892565b61183060076127b6565b808061183b90613e52565b915050611809565b50505050565b6000600660009054906101000a900473ffffffffffffffffffffffffffffffffffffffff16905090565b61187b612384565b73ffffffffffffffffffffffffffffffffffffffff16611899611849565b73ffffffffffffffffffffffffffffffffffffffff16146118ef576040517f08c379a00000000000000000000000000000000000000000000000000000000081526004016118e69061395b565b60405180910390fd5b8066038d7ea4c680006119029190613d20565b600b8190555050565b611913612384565b73ffffffffffffffffffffffffffffffffffffffff16611931611849565b73ffffffffffffffffffffffffffffffffffffffff1614611987576040517f08c379a000000000000000000000000000000000000000000000000000000000815260040161197e9061395b565b60405180910390fd5b80600f60006101000a81548160ff02191690831515021790555050565b6060600180546119b39061384b565b80601f01602080910402602001604051908101604052809291908181526020018280546119df9061384b565b8015611a2c5780601f10611a0157610100808354040283529160200191611a2c565b820191906000526020600020905b815481529060010190602001808311611a0f57829003601f168201915b5050505050905090565b600f60029054906101000a900460ff1681565b600b5481565b611a61611a5a612384565b8383612a6c565b5050565b600e5481565b6000611a77600761278a565b9050611a8233611d0c565b611ac1576040517f08c379a0000000000000000000000000000000000000000000000000000000008152600401611ab89061409d565b60405180910390fd5b600f60019054906101000a900460ff16611b10576040517f08c379a0000000000000000000000000000000000000000000000000000000008152600401611b0790613b7d565b60405180910390fd5b6001600c54611b1f9190613bcc565b8282611b2b9190613bcc565b1115611b6c576040517f08c379a0000000000000000000000000000000000000000000000000000000008152600401611b6390613c6e565b60405180910390fd5b600082118015611b7e5750600d548211155b611bbd576040517f08c379a0000000000000000000000000000000000000000000000000000000008152600401611bb490613d00565b60405180910390fd5b81600b54611bcb9190613d20565b3414611c0c576040517f08c379a0000000000000000000000000000000000000000000000000000000008152600401611c0390613dc6565b60405180910390fd5b600e5482611c19336115f9565b611c239190613bcc565b1115611c64576040517f08c379a0000000000000000000000000000000000000000000000000000000008152600401611c5b90613e32565b60405180910390fd5b6000600190505b828111611ca557611c8833600184611c839190613bcc565b612798565b611c9260076127b6565b8080611c9d90613e52565b915050611c6b565b505050565b611cbb611cb5612384565b83612445565b611cfa576040517f08c379a0000000000000000000000000000000000000000000000000000000008152600401611cf190613b11565b60405180910390fd5b611d0684848484612bd9565b50505050565b6000601060008373ffffffffffffffffffffffffffffffffffffffff1673ffffffffffffffffffffffffffffffffffffffff16815260200190815260200160002060009054906101000a900460ff169050919050565b611d6a612384565b73ffffffffffffffffffffffffffffffffffffffff16611d88611849565b73ffffffffffffffffffffffffffffffffffffffff1614611dde576040517f08c379a0000000000000000000000000000000000000000000000000000000008152600401611dd59061395b565b60405180910390fd5b80600f60016101000a81548160ff02191690831515021790555050565b60098054611e089061384b565b80601f0160208091040260200160405190810160405280929190818152602001828054611e349061384b565b8015611e815780601f10611e5657610100808354040283529160200191611e81565b820191906000526020600020905b815481529060010190602001808311611e6457829003601f168201915b505050505081565b606060001515600f60009054906101000a900460ff1615151415611f08576000600a8054611eb69061384b565b905011611ed25760405180602001604052806000815250611f01565b600a611edd83612c35565b6009604051602001611ef19392919061418d565b6040516020818303038152906040525b9050611f65565b6000611f12612d96565b5111611f2d5760405180602001604052806000815250611f62565b611f35612d96565b611f3e83612c35565b6009604051602001611f52939291906141be565b6040516020818303038152906040525b90505b919050565b611f72612384565b73ffffffffffffffffffffffffffffffffffffffff16611f90611849565b73ffffffffffffffffffffffffffffffffffffffff1614611fe6576040517f08c379a0000000000000000000000000000000000000000000000000000000008152600401611fdd9061395b565b60405180910390fd5b80600e8190555050565b600c5481565b611ffe612384565b73ffffffffffffffffffffffffffffffffffffffff1661201c611849565b73ffffffffffffffffffffffffffffffffffffffff1614612072576040517f08c379a00000000000000000000000000000000000000000000000000000000081526004016120699061395b565b60405180910390fd5b8060099080519060200190612088929190613038565b5050565b6000600560008473ffffffffffffffffffffffffffffffffffffffff1673ffffffffffffffffffffffffffffffffffffffff16815260200190815260200160002060008373ffffffffffffffffffffffffffffffffffffffff1673ffffffffffffffffffffffffffffffffffffffff16815260200190815260200160002060009054906101000a900460ff16905092915050565b612128612384565b73ffffffffffffffffffffffffffffffffffffffff16612146611849565b73ffffffffffffffffffffffffffffffffffffffff161461219c576040517f08c379a00000000000000000000000000000000000000000000000000000000081526004016121939061395b565b60405180910390fd5b80600a90805190602001906121b2929190613038565b5050565b6121be612384565b73ffffffffffffffffffffffffffffffffffffffff166121dc611849565b73ffffffffffffffffffffffffffffffffffffffff1614612232576040517f08c379a00000000000000000000000000000000000000000000000000000000081526004016122299061395b565b60405180910390fd5b600073ffffffffffffffffffffffffffffffffffffffff168173ffffffffffffffffffffffffffffffffffffffff1614156122a2576040517f08c379a000000000000000000000000000000000000000000000000000000000815260040161229990614261565b60405180910390fd5b6122ab816127cc565b50565b60007f01ffc9a7000000000000000000000000000000000000000000000000000000007bffffffffffffffffffffffffffffffffffffffffffffffffffffffff1916827bffffffffffffffffffffffffffffffffffffffffffffffffffffffff1916149050919050565b60008073ffffffffffffffffffffffffffffffffffffffff166002600084815260200190815260200160002060009054906101000a900473ffffffffffffffffffffffffffffffffffffffff1673ffffffffffffffffffffffffffffffffffffffff1614159050919050565b600033905090565b816004600083815260200190815260200160002060006101000a81548173ffffffffffffffffffffffffffffffffffffffff021916908373ffffffffffffffffffffffffffffffffffffffff160217905550808273ffffffffffffffffffffffffffffffffffffffff166123ff83611433565b73ffffffffffffffffffffffffffffffffffffffff167f8c5be1e5ebec7d5bd14f71427d1e84f3dd0314c0f7b2291e5b200ac8c7c3b92560405160405180910390a45050565b600061245082612318565b61248f576040517f08c379a0000000000000000000000000000000000000000000000000000000008152600401612486906142f3565b60405180910390fd5b600061249a83611433565b90508073ffffffffffffffffffffffffffffffffffffffff168473ffffffffffffffffffffffffffffffffffffffff1614806124dc57506124db818561208c565b5b8061251a57508373ffffffffffffffffffffffffffffffffffffffff1661250284610b32565b73ffffffffffffffffffffffffffffffffffffffff16145b91505092915050565b8273ffffffffffffffffffffffffffffffffffffffff1661254382611433565b73ffffffffffffffffffffffffffffffffffffffff1614612599576040517f08c379a000000000000000000000000000000000000000000000000000000000815260040161259090614385565b60405180910390fd5b600073ffffffffffffffffffffffffffffffffffffffff168273ffffffffffffffffffffffffffffffffffffffff161415612609576040517f08c379a000000000000000000000000000000000000000000000000000000000815260040161260090614417565b60405180910390fd5b612614838383612e28565b61261f60008261238c565b6001600360008573ffffffffffffffffffffffffffffffffffffffff1673ffffffffffffffffffffffffffffffffffffffff168152602001908152602001600020600082825461266f9190614437565b925050819055506001600360008473ffffffffffffffffffffffffffffffffffffffff1673ffffffffffffffffffffffffffffffffffffffff16815260200190815260200160002060008282546126c69190613bcc565b92505081905550816002600083815260200190815260200160002060006101000a81548173ffffffffffffffffffffffffffffffffffffffff021916908373ffffffffffffffffffffffffffffffffffffffff160217905550808273ffffffffffffffffffffffffffffffffffffffff168473ffffffffffffffffffffffffffffffffffffffff167fddf252ad1be2c89b69c2b068fc378daa952ba7f163c4a11628f55a4df523b3ef60405160405180910390a4612785838383612e2d565b505050565b600081600001549050919050565b6127b2828260405180602001604052806000815250612e32565b5050565b6001816000016000828254019250508190555050565b6000600660009054906101000a900473ffffffffffffffffffffffffffffffffffffffff16905081600660006101000a81548173ffffffffffffffffffffffffffffffffffffffff021916908373ffffffffffffffffffffffffffffffffffffffff1602179055508173ffffffffffffffffffffffffffffffffffffffff168173ffffffffffffffffffffffffffffffffffffffff167f8be0079c531659141344cd1fd0a4f28419497f9722a3daafe3b4186f6b6457e060405160405180910390a35050565b600073ffffffffffffffffffffffffffffffffffffffff168273ffffffffffffffffffffffffffffffffffffffff161415612902576040517f08c379a00000000000000000000000000000000000000000000000000000000081526004016128f9906144b7565b60405180910390fd5b61290b81612318565b1561294b576040517f08c379a000000000000000000000000000000000000000000000000000000000815260040161294290614523565b60405180910390fd5b61295760008383612e28565b6001600360008473ffffffffffffffffffffffffffffffffffffffff1673ffffffffffffffffffffffffffffffffffffffff16815260200190815260200160002060008282546129a79190613bcc565b92505081905550816002600083815260200190815260200160002060006101000a81548173ffffffffffffffffffffffffffffffffffffffff021916908373ffffffffffffffffffffffffffffffffffffffff160217905550808273ffffffffffffffffffffffffffffffffffffffff16600073ffffffffffffffffffffffffffffffffffffffff167fddf252ad1be2c89b69c2b068fc378daa952ba7f163c4a11628f55a4df523b3ef60405160405180910390a4612a6860008383612e2d565b5050565b8173ffffffffffffffffffffffffffffffffffffffff168373ffffffffffffffffffffffffffffffffffffffff161415612adb576040517f08c379a0000000000000000000000000000000000000000000000000000000008152600401612ad29061458f565b60405180910390fd5b80600560008573ffffffffffffffffffffffffffffffffffffffff1673ffffffffffffffffffffffffffffffffffffffff16815260200190815260200160002060008473ffffffffffffffffffffffffffffffffffffffff1673ffffffffffffffffffffffffffffffffffffffff16815260200190815260200160002060006101000a81548160ff0219169083151502179055508173ffffffffffffffffffffffffffffffffffffffff168373ffffffffffffffffffffffffffffffffffffffff167f17307eab39ab6107e8899845ad3d59bd9653f200f220920489ca2b5937696c3183604051612bcc919061318f565b60405180910390a3505050565b612be4848484612523565b612bf084848484612e8d565b612c2f576040517f08c379a0000000000000000000000000000000000000000000000000000000008152600401612c2690614621565b60405180910390fd5b50505050565b60606000821415612c7d576040518060400160405280600181526020017f30000000000000000000000000000000000000000000000000000000000000008152509050612d91565b600082905060005b60008214612caf578080612c9890613e52565b915050600a82612ca89190614670565b9150612c85565b60008167ffffffffffffffff811115612ccb57612cca613504565b5b6040519080825280601f01601f191660200182016040528015612cfd5781602001600182028036833780820191505090505b5090505b60008514612d8a57600182612d169190614437565b9150600a85612d2591906146a1565b6030612d319190613bcc565b60f81b818381518110612d4757612d466146d2565b5b60200101907effffffffffffffffffffffffffffffffffffffffffffffffffffffffffffff1916908160001a905350600a85612d839190614670565b9450612d01565b8093505050505b919050565b606060088054612da59061384b565b80601f0160208091040260200160405190810160405280929190818152602001828054612dd19061384b565b8015612e1e5780601f10612df357610100808354040283529160200191612e1e565b820191906000526020600020905b815481529060010190602001808311612e0157829003601f168201915b5050505050905090565b505050565b505050565b612e3c8383612892565b612e496000848484612e8d565b612e88576040517f08c379a0000000000000000000000000000000000000000000000000000000008152600401612e7f90614621565b60405180910390fd5b505050565b6000612eae8473ffffffffffffffffffffffffffffffffffffffff16613015565b15613008578373ffffffffffffffffffffffffffffffffffffffff1663150b7a02612ed7612384565b8786866040518563ffffffff1660e01b8152600401612ef99493929190614756565b6020604051808303816000875af1925050508015612f3557506040513d601f19601f82011682018060405250810190612f3291906147b7565b60015b612fb8573d8060008114612f65576040519150601f19603f3d011682016040523d82523d6000602084013e612f6a565b606091505b50600081511415612fb0576040517f08c379a0000000000000000000000000000000000000000000000000000000008152600401612fa790614621565b60405180910390fd5b805181602001fd5b63150b7a0260e01b7bffffffffffffffffffffffffffffffffffffffffffffffffffffffff1916817bffffffffffffffffffffffffffffffffffffffffffffffffffffffff19161491505061300d565b600190505b949350505050565b6000808273ffffffffffffffffffffffffffffffffffffffff163b119050919050565b8280546130449061384b565b90600052602060002090601f01602090048101928261306657600085556130ad565b82601f1061307f57805160ff19168380011785556130ad565b828001600101855582156130ad579182015b828111156130ac578251825591602001919060010190613091565b5b5090506130ba91906130be565b5090565b5b808211156130d75760008160009055506001016130bf565b5090565b6000604051905090565b600080fd5b600080fd5b60007fffffffff0000000000000000000000000000000000000000000000000000000082169050919050565b613124816130ef565b811461312f57600080fd5b50565b6000813590506131418161311b565b92915050565b60006020828403121561315d5761315c6130e5565b5b600061316b84828501613132565b91505092915050565b60008115159050919050565b61318981613174565b82525050565b60006020820190506131a46000830184613180565b92915050565b600081519050919050565b600082825260208201905092915050565b60005b838110156131e45780820151818401526020810190506131c9565b838111156131f3576000848401525b50505050565b6000601f19601f8301169050919050565b6000613215826131aa565b61321f81856131b5565b935061322f8185602086016131c6565b613238816131f9565b840191505092915050565b6000602082019050818103600083015261325d818461320a565b905092915050565b6000819050919050565b61327881613265565b811461328357600080fd5b50565b6000813590506132958161326f565b92915050565b6000602082840312156132b1576132b06130e5565b5b60006132bf84828501613286565b91505092915050565b600073ffffffffffffffffffffffffffffffffffffffff82169050919050565b60006132f3826132c8565b9050919050565b613303816132e8565b82525050565b600060208201905061331e60008301846132fa565b92915050565b61332d816132e8565b811461333857600080fd5b50565b60008135905061334a81613324565b92915050565b60008060408385031215613367576133666130e5565b5b60006133758582860161333b565b925050602061338685828601613286565b9150509250929050565b61339981613265565b82525050565b60006020820190506133b46000830184613390565b92915050565b6000806000606084860312156133d3576133d26130e5565b5b60006133e18682870161333b565b93505060206133f28682870161333b565b925050604061340386828701613286565b9150509250925092565b600060208284031215613423576134226130e5565b5b60006134318482850161333b565b91505092915050565b60008060008060808587031215613454576134536130e5565b5b600061346287828801613286565b945050602061347387828801613286565b935050604061348487828801613286565b925050606061349587828801613286565b91505092959194509250565b6134aa81613174565b81146134b557600080fd5b50565b6000813590506134c7816134a1565b92915050565b6000602082840312156134e3576134e26130e5565b5b60006134f1848285016134b8565b91505092915050565b600080fd5b600080fd5b7f4e487b7100000000000000000000000000000000000000000000000000000000600052604160045260246000fd5b61353c826131f9565b810181811067ffffffffffffffff8211171561355b5761355a613504565b5b80604052505050565b600061356e6130db565b905061357a8282613533565b919050565b600067ffffffffffffffff82111561359a57613599613504565b5b6135a3826131f9565b9050602081019050919050565b82818337600083830152505050565b60006135d26135cd8461357f565b613564565b9050828152602081018484840111156135ee576135ed6134ff565b5b6135f98482856135b0565b509392505050565b600082601f830112613616576136156134fa565b5b81356136268482602086016135bf565b91505092915050565b600060208284031215613645576136446130e5565b5b600082013567ffffffffffffffff811115613663576136626130ea565b5b61366f84828501613601565b91505092915050565b6000806040838503121561368f5761368e6130e5565b5b600061369d8582860161333b565b92505060206136ae858286016134b8565b9150509250929050565b600067ffffffffffffffff8211156136d3576136d2613504565b5b6136dc826131f9565b9050602081019050919050565b60006136fc6136f7846136b8565b613564565b905082815260208101848484011115613718576137176134ff565b5b6137238482856135b0565b509392505050565b600082601f8301126137405761373f6134fa565b5b81356137508482602086016136e9565b91505092915050565b60008060008060808587031215613773576137726130e5565b5b60006137818782880161333b565b94505060206137928782880161333b565b93505060406137a387828801613286565b925050606085013567ffffffffffffffff8111156137c4576137c36130ea565b5b6137d08782880161372b565b91505092959194509250565b600080604083850312156137f3576137f26130e5565b5b60006138018582860161333b565b92505060206138128582860161333b565b9150509250929050565b7f4e487b7100000000000000000000000000000000000000000000000000000000600052602260045260246000fd5b6000600282049050600182168061386357607f821691505b602082108114156138775761387661381c565b5b50919050565b7f4552433732313a20617070726f76656420717565727920666f72206e6f6e657860008201527f697374656e7420746f6b656e0000000000000000000000000000000000000000602082015250565b60006138d9602c836131b5565b91506138e48261387d565b604082019050919050565b60006020820190508181036000830152613908816138cc565b9050919050565b7f4f776e61626c653a2063616c6c6572206973206e6f7420746865206f776e6572600082015250565b60006139456020836131b5565b91506139508261390f565b602082019050919050565b6000602082019050818103600083015261397481613938565b9050919050565b7f4552433732313a20617070726f76616c20746f2063757272656e74206f776e6560008201527f7200000000000000000000000000000000000000000000000000000000000000602082015250565b60006139d76021836131b5565b91506139e28261397b565b604082019050919050565b60006020820190508181036000830152613a06816139ca565b9050919050565b7f4552433732313a20617070726f76652063616c6c6572206973206e6f74206f7760008201527f6e6572206e6f7220617070726f76656420666f7220616c6c0000000000000000602082015250565b6000613a696038836131b5565b9150613a7482613a0d565b604082019050919050565b60006020820190508181036000830152613a9881613a5c565b9050919050565b7f4552433732313a207472616e736665722063616c6c6572206973206e6f74206f60008201527f776e6572206e6f7220617070726f766564000000000000000000000000000000602082015250565b6000613afb6031836131b5565b9150613b0682613a9f565b604082019050919050565b60006020820190508181036000830152613b2a81613aee565b9050919050565b7f546865207075626c69632073616c65206973206e6f7420656e61626c65642100600082015250565b6000613b67601f836131b5565b9150613b7282613b31565b602082019050919050565b60006020820190508181036000830152613b9681613b5a565b9050919050565b7f4e487b7100000000000000000000000000000000000000000000000000000000600052601160045260246000fd5b6000613bd782613265565b9150613be283613265565b9250827fffffffffffffffffffffffffffffffffffffffffffffffffffffffffffffffff03821115613c1757613c16613b9d565b5b828201905092915050565b7f457863656564206d617820616d6f756e74000000000000000000000000000000600082015250565b6000613c586011836131b5565b9150613c6382613c22565b602082019050919050565b60006020820190508181036000830152613c8781613c4b565b9050919050565b7f546f6f206d616e79207265717565737473206f72207a65726f2072657175657360008201527f7400000000000000000000000000000000000000000000000000000000000000602082015250565b6000613cea6021836131b5565b9150613cf582613c8e565b604082019050919050565b60006020820190508181036000830152613d1981613cdd565b9050919050565b6000613d2b82613265565b9150613d3683613265565b9250817fffffffffffffffffffffffffffffffffffffffffffffffffffffffffffffffff0483118215151615613d6f57613d6e613b9d565b5b828202905092915050565b7f4e6f7420656e6f75676820657468000000000000000000000000000000000000600082015250565b6000613db0600e836131b5565b9150613dbb82613d7a565b602082019050919050565b60006020820190508181036000830152613ddf81613da3565b9050919050565b7f457863656564206d617820616d6f756e742070657220706572736f6e00000000600082015250565b6000613e1c601c836131b5565b9150613e2782613de6565b602082019050919050565b60006020820190508181036000830152613e4b81613e0f565b9050919050565b6000613e5d82613265565b91507fffffffffffffffffffffffffffffffffffffffffffffffffffffffffffffffff821415613e9057613e8f613b9d565b5b600182019050919050565b7f4552433732313a206f776e657220717565727920666f72206e6f6e657869737460008201527f656e7420746f6b656e0000000000000000000000000000000000000000000000602082015250565b6000613ef76029836131b5565b9150613f0282613e9b565b604082019050919050565b60006020820190508181036000830152613f2681613eea565b9050919050565b7f4552433732313a2062616c616e636520717565727920666f7220746865207a6560008201527f726f206164647265737300000000000000000000000000000000000000000000602082015250565b6000613f89602a836131b5565b9150613f9482613f2d565b604082019050919050565b60006020820190508181036000830152613fb881613f7c565b9050919050565b7f7a65726f20726571756573740000000000000000000000000000000000000000600082015250565b6000613ff5600c836131b5565b915061400082613fbf565b602082019050919050565b6000602082019050818103600083015261402481613fe8565b9050919050565b7f746869732061646472657373206973206e6f742077686974656c69737420757360008201527f6572000000000000000000000000000000000000000000000000000000000000602082015250565b60006140876022836131b5565b91506140928261402b565b604082019050919050565b600060208201905081810360008301526140b68161407a565b9050919050565b600081905092915050565b60008190508160005260206000209050919050565b600081546140ea8161384b565b6140f481866140bd565b9450600182166000811461410f576001811461412057614153565b60ff19831686528186019350614153565b614129856140c8565b60005b8381101561414b5781548189015260018201915060208101905061412c565b838801955050505b50505092915050565b6000614167826131aa565b61417181856140bd565b93506141818185602086016131c6565b80840191505092915050565b600061419982866140dd565b91506141a5828561415c565b91506141b182846140dd565b9150819050949350505050565b60006141ca828661415c565b91506141d6828561415c565b91506141e282846140dd565b9150819050949350505050565b7f4f776e61626c653a206e6577206f776e657220697320746865207a65726f206160008201527f6464726573730000000000000000000000000000000000000000000000000000602082015250565b600061424b6026836131b5565b9150614256826141ef565b604082019050919050565b6000602082019050818103600083015261427a8161423e565b9050919050565b7f4552433732313a206f70657261746f7220717565727920666f72206e6f6e657860008201527f697374656e7420746f6b656e0000000000000000000000000000000000000000602082015250565b60006142dd602c836131b5565b91506142e882614281565b604082019050919050565b6000602082019050818103600083015261430c816142d0565b9050919050565b7f4552433732313a207472616e736665722066726f6d20696e636f72726563742060008201527f6f776e6572000000000000000000000000000000000000000000000000000000602082015250565b600061436f6025836131b5565b915061437a82614313565b604082019050919050565b6000602082019050818103600083015261439e81614362565b9050919050565b7f4552433732313a207472616e7366657220746f20746865207a65726f2061646460008201527f7265737300000000000000000000000000000000000000000000000000000000602082015250565b60006144016024836131b5565b915061440c826143a5565b604082019050919050565b60006020820190508181036000830152614430816143f4565b9050919050565b600061444282613265565b915061444d83613265565b9250828210156144605761445f613b9d565b5b828203905092915050565b7f4552433732313a206d696e7420746f20746865207a65726f2061646472657373600082015250565b60006144a16020836131b5565b91506144ac8261446b565b602082019050919050565b600060208201905081810360008301526144d081614494565b9050919050565b7f4552433732313a20746f6b656e20616c7265616479206d696e74656400000000600082015250565b600061450d601c836131b5565b9150614518826144d7565b602082019050919050565b6000602082019050818103600083015261453c81614500565b9050919050565b7f4552433732313a20617070726f766520746f2063616c6c657200000000000000600082015250565b60006145796019836131b5565b915061458482614543565b602082019050919050565b600060208201905081810360008301526145a88161456c565b9050919050565b7f4552433732313a207472616e7366657220746f206e6f6e20455243373231526560008201527f63656976657220696d706c656d656e7465720000000000000000000000000000602082015250565b600061460b6032836131b5565b9150614616826145af565b604082019050919050565b6000602082019050818103600083015261463a816145fe565b9050919050565b7f4e487b7100000000000000000000000000000000000000000000000000000000600052601260045260246000fd5b600061467b82613265565b915061468683613265565b92508261469657614695614641565b5b828204905092915050565b60006146ac82613265565b91506146b783613265565b9250826146c7576146c6614641565b5b828206905092915050565b7f4e487b7100000000000000000000000000000000000000000000000000000000600052603260045260246000fd5b600081519050919050565b600082825260208201905092915050565b600061472882614701565b614732818561470c565b93506147428185602086016131c6565b61474b816131f9565b840191505092915050565b600060808201905061476b60008301876132fa565b61477860208301866132fa565b6147856040830185613390565b8181036060830152614797818461471d565b905095945050505050565b6000815190506147b18161311b565b92915050565b6000602082840312156147cd576147cc6130e5565b5b60006147db848285016147a2565b9150509291505056fea2646970667358221220e5fb1b8ce36b4504becf5ce7319aa7a6247d9d6445d5e350115a05e1484bb8b064736f6c634300080a0033",
  "immutableReferences": {},
  "source": "pragma solidity >=0.7.0 <0.9.0;\n\nimport \"@openzeppelin/contracts/token/ERC721/ERC721.sol\";\nimport \"@openzeppelin/contracts/utils/Counters.sol\";\nimport \"@openzeppelin/contracts/access/Ownable.sol\";\n\n/**\n * @title nft reveal version(0.0.1)\n * @author sykang4966@naver.com\n */\n\ncontract CanvasN is ERC721, Ownable {\n    using Strings for uint256;\n    using Counters for Counters.Counter;\n    Counters.Counter private _tokenIds;\n\n    string public baseURI; //  url(dir)\n    string public baseExtension = \".json\"; // \n    string public notRevealedUri; //  url(dir)\n\n    uint256 public price = 0.05 ether; // \n    uint256 public maxSupply; //  \n    uint256 public maxMintAmount; //    \n    uint256 public maxMintPerSale; //    \n\n    bool public revealed = false; // \n    bool public publicMintEnabled = false; //   \n    bool public lockNft = false;\n\n    mapping(address => bool) whitelisted;\n\n    constructor(\n        string memory _name,\n        string memory _symbol\n    ) ERC721(_name, _symbol) { }\n\n    // internal\n\n    function _baseURI() internal view virtual override returns (string memory) {\n        return baseURI;\n    }\n\n    // public method\n\n    function getYesOrNoWhiteList(address _user) public view\n    returns (bool){\n        return whitelisted[_user];\n    }\n    function transferFrom(\n        address from,\n        address to,\n        uint256 tokenId\n    ) public virtual override {\n        //solhint-disable-next-line max-line-length\n        require(lockNft == true);\n        require(_isApprovedOrOwner(_msgSender(), tokenId), \"ERC721: transfer caller is not owner nor approved\");\n\n        _transfer(from, to, tokenId);\n    }\n    function publicMint(uint256 _requestedAmount) public payable {\n        uint256 nowTokenIds = _tokenIds.current();\n        require(publicMintEnabled, \"The public sale is not enabled!\"); //   \n        require(nowTokenIds + _requestedAmount <= maxSupply + 1, \"Exceed max amount\"); //   \n        require(_requestedAmount > 0 && _requestedAmount <= maxMintAmount, \"Too many requests or zero request\"); //   ( tx)\n        require(msg.value == price * _requestedAmount, \"Not enough eth\"); //  \n        require(balanceOf(msg.sender) + _requestedAmount <= maxMintPerSale, \"Exceed max amount per person\");\n\n        for (uint256 i = 1; i <= _requestedAmount; i++) {\n            _safeMint(msg.sender, nowTokenIds + 1);\n            _tokenIds.increment();\n        }\n    }\n    function whiteListSale(uint256 _requestedAmount) public payable {\n        uint256 nowTokenIds = _tokenIds.current();\n        require(getYesOrNoWhiteList(msg.sender), \"this address is not whitelist user\");\n        require(publicMintEnabled, \"The public sale is not enabled!\"); //   \n        require(nowTokenIds + _requestedAmount <= maxSupply + 1, \"Exceed max amount\"); //   \n        require(_requestedAmount > 0 && _requestedAmount <= maxMintAmount, \"Too many requests or zero request\"); //   ( tx)\n        require(msg.value == price * _requestedAmount, \"Not enough eth\"); //  \n        require(balanceOf(msg.sender) + _requestedAmount <= maxMintPerSale, \"Exceed max amount per person\");\n\n        for (uint256 i = 1; i <= _requestedAmount; i++) {\n            _safeMint(msg.sender, nowTokenIds + 1);\n            _tokenIds.increment();\n        }\n    }\n    function airDropMint(address _reciever, uint256 _requestedCount) public onlyOwner{\n        require(_requestedCount > 0, \"zero request\");\n        uint256 nowTokenIds = _tokenIds.current();\n        for(uint256 i = 0; i < _requestedCount; i++) {\n            _mint(_reciever, nowTokenIds + i);\n            _tokenIds.increment();\n        }\n    }\n    function tokenURI(uint256 _tokenId) public view virtual override\n    returns (string memory)\t{\n        if(revealed == false) { //    \n            return bytes(notRevealedUri).length > 0\n            ? string(abi.encodePacked(notRevealedUri, _tokenId.toString(), baseExtension))\n            : \"\";\n        }\n\n        return bytes(_baseURI()).length > 0\n        ? string(abi.encodePacked(_baseURI(), _tokenId.toString(), baseExtension))\n        : \"\";\n    }\n\n    //only owner method\n\n    //util\n    function reveal(bool _type) public onlyOwner {\n        revealed = _type;\n    }\n    function setLockNft(bool _type) public onlyOwner {\n        lockNft = _type;\n    }\n    function setSaleState(bool _type) public onlyOwner {\n        publicMintEnabled = _type;\n    }\n    /**\n     * title set public sale\n     * param uint256 _maxSupply : max amount of minting\n     * param uint256 _maxMintAmount : can be bought at one tx\n     * param uint256 _maxMintPerSale : can be bought at personal in this contract\n    */\n    function setupPublicSale(uint256 _price, uint256 _maxSupply, uint256 _maxMintAmount, uint256 _maxMintPerSale) public onlyOwner {\n        price = 0.001 ether * _price;\n        maxSupply = _maxSupply;\n        maxMintAmount = _maxMintAmount;\n        maxMintPerSale = _maxMintPerSale;\n    }\n    function setPrice(uint256 _newPrice) public onlyOwner {\n        price = 0.001 ether * _newPrice;\n    }\n    function setMaxMintAmount(uint256 _newMaxMintAmount) public onlyOwner {\n        maxMintAmount = _newMaxMintAmount;\n    }\n    function setMaxSupply(uint256 _maxSupply) public onlyOwner {\n        maxSupply = _maxSupply;\n    }\n    function setMaxMintPerSale(uint256 _maxMintPerSale) public onlyOwner {\n        maxMintPerSale = _maxMintPerSale;\n    }\n    //url\n    function setNotRevealedURI(string memory _notRevealedURI) public onlyOwner {\n        notRevealedUri = _notRevealedURI;\n    }\n    function setBaseURI(string memory _newBaseURI) public onlyOwner {\n        baseURI = _newBaseURI;\n    }\n    function setBaseExtension(string memory _newBaseExtension) public onlyOwner {\n        baseExtension = _newBaseExtension;\n    }\n    //whitelist\n    function whitelistUser(address _user) public onlyOwner {\n        whitelisted[_user] = true;\n    }\n    function removeWhitelistUser(address _user) public onlyOwner {\n        whitelisted[_user] = false;\n    }\n}",
  "sourcePath": "/Users/sykang/private-project/nft/contracts/GelmalNftReveal.sol",
  "compiler": {
    "name": "solc",
    "version": "0.8.10+commit.fc410830.Emscripten.clang"
  },
  "schemaVersion": "3.4.7",
  "updatedAt": "2022-05-25T09:12:32.777Z",
  "devdoc": {
    "author": "sykang4966@naver.com",
    "kind": "dev",
    "methods": {
      "approve(address,uint256)": {
        "details": "See {IERC721-approve}."
      },
      "balanceOf(address)": {
        "details": "See {IERC721-balanceOf}."
      },
      "getApproved(uint256)": {
        "details": "See {IERC721-getApproved}."
      },
      "isApprovedForAll(address,address)": {
        "details": "See {IERC721-isApprovedForAll}."
      },
      "name()": {
        "details": "See {IERC721Metadata-name}."
      },
      "owner()": {
        "details": "Returns the address of the current owner."
      },
      "ownerOf(uint256)": {
        "details": "See {IERC721-ownerOf}."
      },
      "renounceOwnership()": {
        "details": "Leaves the contract without owner. It will not be possible to call `onlyOwner` functions anymore. Can only be called by the current owner. NOTE: Renouncing ownership will leave the contract without an owner, thereby removing any functionality that is only available to the owner."
      },
      "safeTransferFrom(address,address,uint256)": {
        "details": "See {IERC721-safeTransferFrom}."
      },
      "safeTransferFrom(address,address,uint256,bytes)": {
        "details": "See {IERC721-safeTransferFrom}."
      },
      "setApprovalForAll(address,bool)": {
        "details": "See {IERC721-setApprovalForAll}."
      },
      "supportsInterface(bytes4)": {
        "details": "See {IERC165-supportsInterface}."
      },
      "symbol()": {
        "details": "See {IERC721Metadata-symbol}."
      },
      "transferFrom(address,address,uint256)": {
        "details": "See {IERC721-transferFrom}."
      },
      "transferOwnership(address)": {
        "details": "Transfers ownership of the contract to a new account (`newOwner`). Can only be called by the current owner."
      }
    },
    "title": "nft reveal version(0.0.1)",
    "version": 1
  },
  "userdoc": {
    "kind": "user",
    "methods": {
      "setupPublicSale(uint256,uint256,uint256,uint256)": {
        "notice": "title set public sale param uint256 _maxSupply : max amount of minting param uint256 _maxMintAmount : can be bought at one tx param uint256 _maxMintPerSale : can be bought at personal in this contract"
      }
    },
    "version": 1
  }
}