{
  "contractName": "GelmalNftReveal",
  "abi": [
    {
      "inputs": [
        {
          "internalType": "string",
          "name": "_name",
          "type": "string"
        },
        {
          "internalType": "string",
          "name": "_symbol",
          "type": "string"
        }
      ],
      "stateMutability": "nonpayable",
      "type": "constructor"
    },
    {
      "anonymous": false,
      "inputs": [
        {
          "indexed": true,
          "internalType": "address",
          "name": "owner",
          "type": "address"
        },
        {
          "indexed": true,
          "internalType": "address",
          "name": "approved",
          "type": "address"
        },
        {
          "indexed": true,
          "internalType": "uint256",
          "name": "tokenId",
          "type": "uint256"
        }
      ],
      "name": "Approval",
      "type": "event"
    },
    {
      "anonymous": false,
      "inputs": [
        {
          "indexed": true,
          "internalType": "address",
          "name": "owner",
          "type": "address"
        },
        {
          "indexed": true,
          "internalType": "address",
          "name": "operator",
          "type": "address"
        },
        {
          "indexed": false,
          "internalType": "bool",
          "name": "approved",
          "type": "bool"
        }
      ],
      "name": "ApprovalForAll",
      "type": "event"
    },
    {
      "anonymous": false,
      "inputs": [
        {
          "indexed": true,
          "internalType": "address",
          "name": "previousOwner",
          "type": "address"
        },
        {
          "indexed": true,
          "internalType": "address",
          "name": "newOwner",
          "type": "address"
        }
      ],
      "name": "OwnershipTransferred",
      "type": "event"
    },
    {
      "anonymous": false,
      "inputs": [
        {
          "indexed": true,
          "internalType": "address",
          "name": "from",
          "type": "address"
        },
        {
          "indexed": true,
          "internalType": "address",
          "name": "to",
          "type": "address"
        },
        {
          "indexed": true,
          "internalType": "uint256",
          "name": "tokenId",
          "type": "uint256"
        }
      ],
      "name": "Transfer",
      "type": "event"
    },
    {
      "inputs": [
        {
          "internalType": "address",
          "name": "to",
          "type": "address"
        },
        {
          "internalType": "uint256",
          "name": "tokenId",
          "type": "uint256"
        }
      ],
      "name": "approve",
      "outputs": [],
      "stateMutability": "nonpayable",
      "type": "function"
    },
    {
      "inputs": [
        {
          "internalType": "address",
          "name": "owner",
          "type": "address"
        }
      ],
      "name": "balanceOf",
      "outputs": [
        {
          "internalType": "uint256",
          "name": "",
          "type": "uint256"
        }
      ],
      "stateMutability": "view",
      "type": "function"
    },
    {
      "inputs": [],
      "name": "baseExtension",
      "outputs": [
        {
          "internalType": "string",
          "name": "",
          "type": "string"
        }
      ],
      "stateMutability": "view",
      "type": "function"
    },
    {
      "inputs": [],
      "name": "baseURI",
      "outputs": [
        {
          "internalType": "string",
          "name": "",
          "type": "string"
        }
      ],
      "stateMutability": "view",
      "type": "function"
    },
    {
      "inputs": [
        {
          "internalType": "uint256",
          "name": "tokenId",
          "type": "uint256"
        }
      ],
      "name": "getApproved",
      "outputs": [
        {
          "internalType": "address",
          "name": "",
          "type": "address"
        }
      ],
      "stateMutability": "view",
      "type": "function"
    },
    {
      "inputs": [
        {
          "internalType": "address",
          "name": "owner",
          "type": "address"
        },
        {
          "internalType": "address",
          "name": "operator",
          "type": "address"
        }
      ],
      "name": "isApprovedForAll",
      "outputs": [
        {
          "internalType": "bool",
          "name": "",
          "type": "bool"
        }
      ],
      "stateMutability": "view",
      "type": "function"
    },
    {
      "inputs": [],
      "name": "lockNft",
      "outputs": [
        {
          "internalType": "bool",
          "name": "",
          "type": "bool"
        }
      ],
      "stateMutability": "view",
      "type": "function"
    },
    {
      "inputs": [],
      "name": "maxMintAmount",
      "outputs": [
        {
          "internalType": "uint256",
          "name": "",
          "type": "uint256"
        }
      ],
      "stateMutability": "view",
      "type": "function"
    },
    {
      "inputs": [],
      "name": "maxMintPerSale",
      "outputs": [
        {
          "internalType": "uint256",
          "name": "",
          "type": "uint256"
        }
      ],
      "stateMutability": "view",
      "type": "function"
    },
    {
      "inputs": [],
      "name": "maxSupply",
      "outputs": [
        {
          "internalType": "uint256",
          "name": "",
          "type": "uint256"
        }
      ],
      "stateMutability": "view",
      "type": "function"
    },
    {
      "inputs": [],
      "name": "name",
      "outputs": [
        {
          "internalType": "string",
          "name": "",
          "type": "string"
        }
      ],
      "stateMutability": "view",
      "type": "function"
    },
    {
      "inputs": [],
      "name": "notRevealedUri",
      "outputs": [
        {
          "internalType": "string",
          "name": "",
          "type": "string"
        }
      ],
      "stateMutability": "view",
      "type": "function"
    },
    {
      "inputs": [],
      "name": "owner",
      "outputs": [
        {
          "internalType": "address",
          "name": "",
          "type": "address"
        }
      ],
      "stateMutability": "view",
      "type": "function"
    },
    {
      "inputs": [
        {
          "internalType": "uint256",
          "name": "tokenId",
          "type": "uint256"
        }
      ],
      "name": "ownerOf",
      "outputs": [
        {
          "internalType": "address",
          "name": "",
          "type": "address"
        }
      ],
      "stateMutability": "view",
      "type": "function"
    },
    {
      "inputs": [],
      "name": "price",
      "outputs": [
        {
          "internalType": "uint256",
          "name": "",
          "type": "uint256"
        }
      ],
      "stateMutability": "view",
      "type": "function"
    },
    {
      "inputs": [],
      "name": "publicMintEnabled",
      "outputs": [
        {
          "internalType": "bool",
          "name": "",
          "type": "bool"
        }
      ],
      "stateMutability": "view",
      "type": "function"
    },
    {
      "inputs": [],
      "name": "renounceOwnership",
      "outputs": [],
      "stateMutability": "nonpayable",
      "type": "function"
    },
    {
      "inputs": [],
      "name": "revealed",
      "outputs": [
        {
          "internalType": "bool",
          "name": "",
          "type": "bool"
        }
      ],
      "stateMutability": "view",
      "type": "function"
    },
    {
      "inputs": [
        {
          "internalType": "address",
          "name": "from",
          "type": "address"
        },
        {
          "internalType": "address",
          "name": "to",
          "type": "address"
        },
        {
          "internalType": "uint256",
          "name": "tokenId",
          "type": "uint256"
        }
      ],
      "name": "safeTransferFrom",
      "outputs": [],
      "stateMutability": "nonpayable",
      "type": "function"
    },
    {
      "inputs": [
        {
          "internalType": "address",
          "name": "from",
          "type": "address"
        },
        {
          "internalType": "address",
          "name": "to",
          "type": "address"
        },
        {
          "internalType": "uint256",
          "name": "tokenId",
          "type": "uint256"
        },
        {
          "internalType": "bytes",
          "name": "_data",
          "type": "bytes"
        }
      ],
      "name": "safeTransferFrom",
      "outputs": [],
      "stateMutability": "nonpayable",
      "type": "function"
    },
    {
      "inputs": [
        {
          "internalType": "address",
          "name": "operator",
          "type": "address"
        },
        {
          "internalType": "bool",
          "name": "approved",
          "type": "bool"
        }
      ],
      "name": "setApprovalForAll",
      "outputs": [],
      "stateMutability": "nonpayable",
      "type": "function"
    },
    {
      "inputs": [
        {
          "internalType": "bytes4",
          "name": "interfaceId",
          "type": "bytes4"
        }
      ],
      "name": "supportsInterface",
      "outputs": [
        {
          "internalType": "bool",
          "name": "",
          "type": "bool"
        }
      ],
      "stateMutability": "view",
      "type": "function"
    },
    {
      "inputs": [],
      "name": "symbol",
      "outputs": [
        {
          "internalType": "string",
          "name": "",
          "type": "string"
        }
      ],
      "stateMutability": "view",
      "type": "function"
    },
    {
      "inputs": [
        {
          "internalType": "address",
          "name": "newOwner",
          "type": "address"
        }
      ],
      "name": "transferOwnership",
      "outputs": [],
      "stateMutability": "nonpayable",
      "type": "function"
    },
    {
      "inputs": [],
      "name": "getContractBalance",
      "outputs": [
        {
          "internalType": "uint256",
          "name": "",
          "type": "uint256"
        }
      ],
      "stateMutability": "view",
      "type": "function"
    },
    {
      "inputs": [
        {
          "internalType": "address",
          "name": "_user",
          "type": "address"
        }
      ],
      "name": "getYesOrNoWhiteList",
      "outputs": [
        {
          "internalType": "bool",
          "name": "",
          "type": "bool"
        }
      ],
      "stateMutability": "view",
      "type": "function"
    },
    {
      "inputs": [
        {
          "internalType": "address",
          "name": "from",
          "type": "address"
        },
        {
          "internalType": "address",
          "name": "to",
          "type": "address"
        },
        {
          "internalType": "uint256",
          "name": "tokenId",
          "type": "uint256"
        }
      ],
      "name": "transferFrom",
      "outputs": [],
      "stateMutability": "nonpayable",
      "type": "function"
    },
    {
      "inputs": [
        {
          "internalType": "uint256",
          "name": "_requestedAmount",
          "type": "uint256"
        }
      ],
      "name": "publicMint",
      "outputs": [],
      "stateMutability": "payable",
      "type": "function"
    },
    {
      "inputs": [
        {
          "internalType": "uint256",
          "name": "_requestedAmount",
          "type": "uint256"
        }
      ],
      "name": "whiteListSale",
      "outputs": [],
      "stateMutability": "payable",
      "type": "function"
    },
    {
      "inputs": [
        {
          "internalType": "address",
          "name": "_reciever",
          "type": "address"
        },
        {
          "internalType": "uint256",
          "name": "_requestedCount",
          "type": "uint256"
        }
      ],
      "name": "airDropMint",
      "outputs": [],
      "stateMutability": "nonpayable",
      "type": "function"
    },
    {
      "inputs": [
        {
          "internalType": "uint256",
          "name": "_tokenId",
          "type": "uint256"
        }
      ],
      "name": "tokenURI",
      "outputs": [
        {
          "internalType": "string",
          "name": "",
          "type": "string"
        }
      ],
      "stateMutability": "view",
      "type": "function"
    },
    {
      "inputs": [
        {
          "internalType": "bool",
          "name": "_type",
          "type": "bool"
        }
      ],
      "name": "reveal",
      "outputs": [],
      "stateMutability": "nonpayable",
      "type": "function"
    },
    {
      "inputs": [
        {
          "internalType": "bool",
          "name": "_type",
          "type": "bool"
        }
      ],
      "name": "setLockNft",
      "outputs": [],
      "stateMutability": "nonpayable",
      "type": "function"
    },
    {
      "inputs": [
        {
          "internalType": "bool",
          "name": "_type",
          "type": "bool"
        }
      ],
      "name": "setSaleState",
      "outputs": [],
      "stateMutability": "nonpayable",
      "type": "function"
    },
    {
      "inputs": [
        {
          "internalType": "uint256",
          "name": "_price",
          "type": "uint256"
        },
        {
          "internalType": "uint256",
          "name": "_maxSupply",
          "type": "uint256"
        },
        {
          "internalType": "uint256",
          "name": "_maxMintAmount",
          "type": "uint256"
        },
        {
          "internalType": "uint256",
          "name": "_maxMintPerSale",
          "type": "uint256"
        }
      ],
      "name": "setupPublicSale",
      "outputs": [],
      "stateMutability": "nonpayable",
      "type": "function"
    },
    {
      "inputs": [
        {
          "internalType": "uint256",
          "name": "_newPrice",
          "type": "uint256"
        }
      ],
      "name": "setPrice",
      "outputs": [],
      "stateMutability": "nonpayable",
      "type": "function"
    },
    {
      "inputs": [
        {
          "internalType": "uint256",
          "name": "_newMaxMintAmount",
          "type": "uint256"
        }
      ],
      "name": "setMaxMintAmount",
      "outputs": [],
      "stateMutability": "nonpayable",
      "type": "function"
    },
    {
      "inputs": [
        {
          "internalType": "uint256",
          "name": "_maxSupply",
          "type": "uint256"
        }
      ],
      "name": "setMaxSupply",
      "outputs": [],
      "stateMutability": "nonpayable",
      "type": "function"
    },
    {
      "inputs": [
        {
          "internalType": "uint256",
          "name": "_maxMintPerSale",
          "type": "uint256"
        }
      ],
      "name": "setMaxMintPerSale",
      "outputs": [],
      "stateMutability": "nonpayable",
      "type": "function"
    },
    {
      "inputs": [
        {
          "internalType": "string",
          "name": "_notRevealedURI",
          "type": "string"
        }
      ],
      "name": "setNotRevealedURI",
      "outputs": [],
      "stateMutability": "nonpayable",
      "type": "function"
    },
    {
      "inputs": [
        {
          "internalType": "string",
          "name": "_newBaseURI",
          "type": "string"
        }
      ],
      "name": "setBaseURI",
      "outputs": [],
      "stateMutability": "nonpayable",
      "type": "function"
    },
    {
      "inputs": [
        {
          "internalType": "string",
          "name": "_newBaseExtension",
          "type": "string"
        }
      ],
      "name": "setBaseExtension",
      "outputs": [],
      "stateMutability": "nonpayable",
      "type": "function"
    },
    {
      "inputs": [
        {
          "internalType": "address",
          "name": "_user",
          "type": "address"
        }
      ],
      "name": "whitelistUser",
      "outputs": [],
      "stateMutability": "nonpayable",
      "type": "function"
    },
    {
      "inputs": [
        {
          "internalType": "address",
          "name": "_user",
          "type": "address"
        }
      ],
      "name": "removeWhitelistUser",
      "outputs": [],
      "stateMutability": "nonpayable",
      "type": "function"
    },
    {
      "inputs": [],
      "name": "withdrawToMe",
      "outputs": [],
      "stateMutability": "payable",
      "type": "function"
    },
    {
      "inputs": [
        {
          "internalType": "uint256",
          "name": "_amount",
          "type": "uint256"
        },
        {
          "internalType": "address",
          "name": "_receiver",
          "type": "address"
        }
      ],
      "name": "withdrawToOther",
      "outputs": [],
      "stateMutability": "payable",
      "type": "function"
    }
  ],
  "bytecode": "0x60806040526040518060400160405280600581526020017f2e6a736f6e00000000000000000000000000000000000000000000000000000081525060099080519060200190620000519291906200020d565b5066b1a2bc2ec50000600b556000600f60006101000a81548160ff0219169083151502179055506000600f60016101000a81548160ff0219169083151502179055506000600f60026101000a81548160ff021916908315150217905550348015620000bb57600080fd5b5060405162005086380380620050868339818101604052810190620000e191906200045a565b81818160009080519060200190620000fb9291906200020d565b508060019080519060200190620001149291906200020d565b505050620001376200012b6200013f60201b60201c565b6200014760201b60201c565b505062000544565b600033905090565b6000600660009054906101000a900473ffffffffffffffffffffffffffffffffffffffff16905081600660006101000a81548173ffffffffffffffffffffffffffffffffffffffff021916908373ffffffffffffffffffffffffffffffffffffffff1602179055508173ffffffffffffffffffffffffffffffffffffffff168173ffffffffffffffffffffffffffffffffffffffff167f8be0079c531659141344cd1fd0a4f28419497f9722a3daafe3b4186f6b6457e060405160405180910390a35050565b8280546200021b906200050e565b90600052602060002090601f0160209004810192826200023f57600085556200028b565b82601f106200025a57805160ff19168380011785556200028b565b828001600101855582156200028b579182015b828111156200028a5782518255916020019190600101906200026d565b5b5090506200029a91906200029e565b5090565b5b80821115620002b95760008160009055506001016200029f565b5090565b6000604051905090565b600080fd5b600080fd5b600080fd5b600080fd5b6000601f19601f8301169050919050565b7f4e487b7100000000000000000000000000000000000000000000000000000000600052604160045260246000fd5b6200032682620002db565b810181811067ffffffffffffffff82111715620003485762000347620002ec565b5b80604052505050565b60006200035d620002bd565b90506200036b82826200031b565b919050565b600067ffffffffffffffff8211156200038e576200038d620002ec565b5b6200039982620002db565b9050602081019050919050565b60005b83811015620003c6578082015181840152602081019050620003a9565b83811115620003d6576000848401525b50505050565b6000620003f3620003ed8462000370565b62000351565b905082815260208101848484011115620004125762000411620002d6565b5b6200041f848285620003a6565b509392505050565b600082601f8301126200043f576200043e620002d1565b5b815162000451848260208601620003dc565b91505092915050565b60008060408385031215620004745762000473620002c7565b5b600083015167ffffffffffffffff811115620004955762000494620002cc565b5b620004a38582860162000427565b925050602083015167ffffffffffffffff811115620004c757620004c6620002cc565b5b620004d58582860162000427565b9150509250929050565b7f4e487b7100000000000000000000000000000000000000000000000000000000600052602260045260246000fd5b600060028204905060018216806200052757607f821691505b602082108114156200053e576200053d620004df565b5b50919050565b614b3280620005546000396000f3fe60806040526004361061027d5760003560e01c806375a1ed081161014f578063c01aa1a6116100c1578063d5abeb011161007a578063d5abeb0114610943578063d77aa2ea1461096e578063da3ef23f14610978578063e985e9c5146109a1578063f2c4ce1e146109de578063f2fde38b14610a075761027d565b8063c01aa1a614610830578063c4e370951461086d578063c668286214610896578063c87b56dd146108c1578063ce7f1901146108fe578063d2a20ecc146109275761027d565b80639c5bfeae116101135780639c5bfeae14610741578063a035b1fe1461076c578063a22cb46514610797578063a826b821146107c0578063b85eb674146107eb578063b88d4fde146108075761027d565b806375a1ed08146106705780638da5cb5b1461069957806391b7f5ed146106c4578063940cd05b146106ed57806395d89b41146107165761027d565b8063361329fd116101f35780636352211e116101ac5780636352211e146105605780636c0360eb1461059d5780636f8b44b0146105c85780636f9fb98a146105f157806370a082311461061c578063715018a6146106595761027d565b8063361329fd1461046857806342842e0e146104915780634a4c560d146104ba5780634e42324c146104e3578063518302271461050c57806355f804b3146105375761027d565b8063095ea7b311610245578063095ea7b31461037b5780630f4161aa146103a4578063239c70ae146103cf57806323b872dd146103fa5780632db115441461042357806330cc7ae01461043f5761027d565b806301ffc9a71461028257806306fdde03146102bf578063081812fc146102ea578063081c8c4414610327578063088a4ed014610352575b600080fd5b34801561028e57600080fd5b506102a960048036038101906102a491906133d9565b610a30565b6040516102b69190613421565b60405180910390f35b3480156102cb57600080fd5b506102d4610b12565b6040516102e191906134d5565b60405180910390f35b3480156102f657600080fd5b50610311600480360381019061030c919061352d565b610ba4565b60405161031e919061359b565b60405180910390f35b34801561033357600080fd5b5061033c610c29565b60405161034991906134d5565b60405180910390f35b34801561035e57600080fd5b506103796004803603810190610374919061352d565b610cb7565b005b34801561038757600080fd5b506103a2600480360381019061039d91906135e2565b610d3d565b005b3480156103b057600080fd5b506103b9610e55565b6040516103c69190613421565b60405180910390f35b3480156103db57600080fd5b506103e4610e68565b6040516103f19190613631565b60405180910390f35b34801561040657600080fd5b50610421600480360381019061041c919061364c565b610e6e565b005b61043d6004803603810190610438919061352d565b610eee565b005b34801561044b57600080fd5b506104666004803603810190610461919061369f565b6110e5565b005b34801561047457600080fd5b5061048f600480360381019061048a91906136cc565b6111bc565b005b34801561049d57600080fd5b506104b860048036038101906104b3919061364c565b61126c565b005b3480156104c657600080fd5b506104e160048036038101906104dc919061369f565b61128c565b005b3480156104ef57600080fd5b5061050a6004803603810190610505919061375f565b611363565b005b34801561051857600080fd5b506105216113fc565b60405161052e9190613421565b60405180910390f35b34801561054357600080fd5b5061055e600480360381019061055991906138c1565b61140f565b005b34801561056c57600080fd5b506105876004803603810190610582919061352d565b6114a5565b604051610594919061359b565b60405180910390f35b3480156105a957600080fd5b506105b2611557565b6040516105bf91906134d5565b60405180910390f35b3480156105d457600080fd5b506105ef60048036038101906105ea919061352d565b6115e5565b005b3480156105fd57600080fd5b5061060661166b565b6040516106139190613631565b60405180910390f35b34801561062857600080fd5b50610643600480360381019061063e919061369f565b611673565b6040516106509190613631565b60405180910390f35b34801561066557600080fd5b5061066e61172b565b005b34801561067c57600080fd5b50610697600480360381019061069291906135e2565b6117b3565b005b3480156106a557600080fd5b506106ae6118c3565b6040516106bb919061359b565b60405180910390f35b3480156106d057600080fd5b506106eb60048036038101906106e6919061352d565b6118ed565b005b3480156106f957600080fd5b50610714600480360381019061070f919061375f565b611985565b005b34801561072257600080fd5b5061072b611a1e565b60405161073891906134d5565b60405180910390f35b34801561074d57600080fd5b50610756611ab0565b6040516107639190613421565b60405180910390f35b34801561077857600080fd5b50610781611ac3565b60405161078e9190613631565b60405180910390f35b3480156107a357600080fd5b506107be60048036038101906107b9919061390a565b611ac9565b005b3480156107cc57600080fd5b506107d5611adf565b6040516107e29190613631565b60405180910390f35b6108056004803603810190610800919061352d565b611ae5565b005b34801561081357600080fd5b5061082e600480360381019061082991906139eb565b611d24565b005b34801561083c57600080fd5b506108576004803603810190610852919061369f565b611d86565b6040516108649190613421565b60405180910390f35b34801561087957600080fd5b50610894600480360381019061088f919061375f565b611ddc565b005b3480156108a257600080fd5b506108ab611e75565b6040516108b891906134d5565b60405180910390f35b3480156108cd57600080fd5b506108e860048036038101906108e3919061352d565b611f03565b6040516108f591906134d5565b60405180910390f35b34801561090a57600080fd5b506109256004803603810190610920919061352d565b611fe4565b005b610941600480360381019061093c9190613a6e565b61206a565b005b34801561094f57600080fd5b50610958612179565b6040516109659190613631565b60405180910390f35b61097661217f565b005b34801561098457600080fd5b5061099f600480360381019061099a91906138c1565b612288565b005b3480156109ad57600080fd5b506109c860048036038101906109c39190613aae565b61231e565b6040516109d59190613421565b60405180910390f35b3480156109ea57600080fd5b50610a056004803603810190610a0091906138c1565b6123b2565b005b348015610a1357600080fd5b50610a2e6004803603810190610a29919061369f565b612448565b005b60007f80ac58cd000000000000000000000000000000000000000000000000000000007bffffffffffffffffffffffffffffffffffffffffffffffffffffffff1916827bffffffffffffffffffffffffffffffffffffffffffffffffffffffff19161480610afb57507f5b5e139f000000000000000000000000000000000000000000000000000000007bffffffffffffffffffffffffffffffffffffffffffffffffffffffff1916827bffffffffffffffffffffffffffffffffffffffffffffffffffffffff1916145b80610b0b5750610b0a82612540565b5b9050919050565b606060008054610b2190613b1d565b80601f0160208091040260200160405190810160405280929190818152602001828054610b4d90613b1d565b8015610b9a5780601f10610b6f57610100808354040283529160200191610b9a565b820191906000526020600020905b815481529060010190602001808311610b7d57829003601f168201915b5050505050905090565b6000610baf826125aa565b610bee576040517f08c379a0000000000000000000000000000000000000000000000000000000008152600401610be590613bc1565b60405180910390fd5b6004600083815260200190815260200160002060009054906101000a900473ffffffffffffffffffffffffffffffffffffffff169050919050565b600a8054610c3690613b1d565b80601f0160208091040260200160405190810160405280929190818152602001828054610c6290613b1d565b8015610caf5780601f10610c8457610100808354040283529160200191610caf565b820191906000526020600020905b815481529060010190602001808311610c9257829003601f168201915b505050505081565b610cbf612616565b73ffffffffffffffffffffffffffffffffffffffff16610cdd6118c3565b73ffffffffffffffffffffffffffffffffffffffff1614610d33576040517f08c379a0000000000000000000000000000000000000000000000000000000008152600401610d2a90613c2d565b60405180910390fd5b80600d8190555050565b6000610d48826114a5565b90508073ffffffffffffffffffffffffffffffffffffffff168373ffffffffffffffffffffffffffffffffffffffff161415610db9576040517f08c379a0000000000000000000000000000000000000000000000000000000008152600401610db090613cbf565b60405180910390fd5b8073ffffffffffffffffffffffffffffffffffffffff16610dd8612616565b73ffffffffffffffffffffffffffffffffffffffff161480610e075750610e0681610e01612616565b61231e565b5b610e46576040517f08c379a0000000000000000000000000000000000000000000000000000000008152600401610e3d90613d51565b60405180910390fd5b610e50838361261e565b505050565b600f60019054906101000a900460ff1681565b600d5481565b60011515600f60029054906101000a900460ff16151514610e8e57600080fd5b610e9f610e99612616565b826126d7565b610ede576040517f08c379a0000000000000000000000000000000000000000000000000000000008152600401610ed590613de3565b60405180910390fd5b610ee98383836127b5565b505050565b6000610efa6007612a1c565b9050600f60019054906101000a900460ff16610f4b576040517f08c379a0000000000000000000000000000000000000000000000000000000008152600401610f4290613e4f565b60405180910390fd5b6001600c54610f5a9190613e9e565b8282610f669190613e9e565b1115610fa7576040517f08c379a0000000000000000000000000000000000000000000000000000000008152600401610f9e90613f40565b60405180910390fd5b600082118015610fb95750600d548211155b610ff8576040517f08c379a0000000000000000000000000000000000000000000000000000000008152600401610fef90613fd2565b60405180910390fd5b81600b546110069190613ff2565b3414611047576040517f08c379a000000000000000000000000000000000000000000000000000000000815260040161103e90614098565b60405180910390fd5b600e548261105433611673565b61105e9190613e9e565b111561109f576040517f08c379a000000000000000000000000000000000000000000000000000000000815260040161109690614104565b60405180910390fd5b6000600190505b8281116110e0576110c3336001846110be9190613e9e565b612a2a565b6110cd6007612a48565b80806110d890614124565b9150506110a6565b505050565b6110ed612616565b73ffffffffffffffffffffffffffffffffffffffff1661110b6118c3565b73ffffffffffffffffffffffffffffffffffffffff1614611161576040517f08c379a000000000000000000000000000000000000000000000000000000000815260040161115890613c2d565b60405180910390fd5b6000601060008373ffffffffffffffffffffffffffffffffffffffff1673ffffffffffffffffffffffffffffffffffffffff16815260200190815260200160002060006101000a81548160ff02191690831515021790555050565b6111c4612616565b73ffffffffffffffffffffffffffffffffffffffff166111e26118c3565b73ffffffffffffffffffffffffffffffffffffffff1614611238576040517f08c379a000000000000000000000000000000000000000000000000000000000815260040161122f90613c2d565b60405180910390fd5b8366038d7ea4c6800061124b9190613ff2565b600b8190555082600c8190555081600d8190555080600e8190555050505050565b61128783838360405180602001604052806000815250611d24565b505050565b611294612616565b73ffffffffffffffffffffffffffffffffffffffff166112b26118c3565b73ffffffffffffffffffffffffffffffffffffffff1614611308576040517f08c379a00000000000000000000000000000000000000000000000000000000081526004016112ff90613c2d565b60405180910390fd5b6001601060008373ffffffffffffffffffffffffffffffffffffffff1673ffffffffffffffffffffffffffffffffffffffff16815260200190815260200160002060006101000a81548160ff02191690831515021790555050565b61136b612616565b73ffffffffffffffffffffffffffffffffffffffff166113896118c3565b73ffffffffffffffffffffffffffffffffffffffff16146113df576040517f08c379a00000000000000000000000000000000000000000000000000000000081526004016113d690613c2d565b60405180910390fd5b80600f60026101000a81548160ff02191690831515021790555050565b600f60009054906101000a900460ff1681565b611417612616565b73ffffffffffffffffffffffffffffffffffffffff166114356118c3565b73ffffffffffffffffffffffffffffffffffffffff161461148b576040517f08c379a000000000000000000000000000000000000000000000000000000000815260040161148290613c2d565b60405180910390fd5b80600890805190602001906114a19291906132ca565b5050565b6000806002600084815260200190815260200160002060009054906101000a900473ffffffffffffffffffffffffffffffffffffffff169050600073ffffffffffffffffffffffffffffffffffffffff168173ffffffffffffffffffffffffffffffffffffffff16141561154e576040517f08c379a0000000000000000000000000000000000000000000000000000000008152600401611545906141df565b60405180910390fd5b80915050919050565b6008805461156490613b1d565b80601f016020809104026020016040519081016040528092919081815260200182805461159090613b1d565b80156115dd5780601f106115b2576101008083540402835291602001916115dd565b820191906000526020600020905b8154815290600101906020018083116115c057829003601f168201915b505050505081565b6115ed612616565b73ffffffffffffffffffffffffffffffffffffffff1661160b6118c3565b73ffffffffffffffffffffffffffffffffffffffff1614611661576040517f08c379a000000000000000000000000000000000000000000000000000000000815260040161165890613c2d565b60405180910390fd5b80600c8190555050565b600047905090565b60008073ffffffffffffffffffffffffffffffffffffffff168273ffffffffffffffffffffffffffffffffffffffff1614156116e4576040517f08c379a00000000000000000000000000000000000000000000000000000000081526004016116db90614271565b60405180910390fd5b600360008373ffffffffffffffffffffffffffffffffffffffff1673ffffffffffffffffffffffffffffffffffffffff168152602001908152602001600020549050919050565b611733612616565b73ffffffffffffffffffffffffffffffffffffffff166117516118c3565b73ffffffffffffffffffffffffffffffffffffffff16146117a7576040517f08c379a000000000000000000000000000000000000000000000000000000000815260040161179e90613c2d565b60405180910390fd5b6117b16000612a5e565b565b6117bb612616565b73ffffffffffffffffffffffffffffffffffffffff166117d96118c3565b73ffffffffffffffffffffffffffffffffffffffff161461182f576040517f08c379a000000000000000000000000000000000000000000000000000000000815260040161182690613c2d565b60405180910390fd5b60008111611872576040517f08c379a0000000000000000000000000000000000000000000000000000000008152600401611869906142dd565b60405180910390fd5b600061187e6007612a1c565b905060005b828110156118bd576118a084828461189b9190613e9e565b612b24565b6118aa6007612a48565b80806118b590614124565b915050611883565b50505050565b6000600660009054906101000a900473ffffffffffffffffffffffffffffffffffffffff16905090565b6118f5612616565b73ffffffffffffffffffffffffffffffffffffffff166119136118c3565b73ffffffffffffffffffffffffffffffffffffffff1614611969576040517f08c379a000000000000000000000000000000000000000000000000000000000815260040161196090613c2d565b60405180910390fd5b8066038d7ea4c6800061197c9190613ff2565b600b8190555050565b61198d612616565b73ffffffffffffffffffffffffffffffffffffffff166119ab6118c3565b73ffffffffffffffffffffffffffffffffffffffff1614611a01576040517f08c379a00000000000000000000000000000000000000000000000000000000081526004016119f890613c2d565b60405180910390fd5b80600f60006101000a81548160ff02191690831515021790555050565b606060018054611a2d90613b1d565b80601f0160208091040260200160405190810160405280929190818152602001828054611a5990613b1d565b8015611aa65780601f10611a7b57610100808354040283529160200191611aa6565b820191906000526020600020905b815481529060010190602001808311611a8957829003601f168201915b5050505050905090565b600f60029054906101000a900460ff1681565b600b5481565b611adb611ad4612616565b8383612cfe565b5050565b600e5481565b6000611af16007612a1c565b9050611afc33611d86565b611b3b576040517f08c379a0000000000000000000000000000000000000000000000000000000008152600401611b329061436f565b60405180910390fd5b600f60019054906101000a900460ff16611b8a576040517f08c379a0000000000000000000000000000000000000000000000000000000008152600401611b8190613e4f565b60405180910390fd5b6001600c54611b999190613e9e565b8282611ba59190613e9e565b1115611be6576040517f08c379a0000000000000000000000000000000000000000000000000000000008152600401611bdd90613f40565b60405180910390fd5b600082118015611bf85750600d548211155b611c37576040517f08c379a0000000000000000000000000000000000000000000000000000000008152600401611c2e90613fd2565b60405180910390fd5b81600b54611c459190613ff2565b3414611c86576040517f08c379a0000000000000000000000000000000000000000000000000000000008152600401611c7d90614098565b60405180910390fd5b600e5482611c9333611673565b611c9d9190613e9e565b1115611cde576040517f08c379a0000000000000000000000000000000000000000000000000000000008152600401611cd590614104565b60405180910390fd5b6000600190505b828111611d1f57611d0233600184611cfd9190613e9e565b612a2a565b611d0c6007612a48565b8080611d1790614124565b915050611ce5565b505050565b611d35611d2f612616565b836126d7565b611d74576040517f08c379a0000000000000000000000000000000000000000000000000000000008152600401611d6b90613de3565b60405180910390fd5b611d8084848484612e6b565b50505050565b6000601060008373ffffffffffffffffffffffffffffffffffffffff1673ffffffffffffffffffffffffffffffffffffffff16815260200190815260200160002060009054906101000a900460ff169050919050565b611de4612616565b73ffffffffffffffffffffffffffffffffffffffff16611e026118c3565b73ffffffffffffffffffffffffffffffffffffffff1614611e58576040517f08c379a0000000000000000000000000000000000000000000000000000000008152600401611e4f90613c2d565b60405180910390fd5b80600f60016101000a81548160ff02191690831515021790555050565b60098054611e8290613b1d565b80601f0160208091040260200160405190810160405280929190818152602001828054611eae90613b1d565b8015611efb5780601f10611ed057610100808354040283529160200191611efb565b820191906000526020600020905b815481529060010190602001808311611ede57829003601f168201915b505050505081565b606060001515600f60009054906101000a900460ff1615151415611f82576000600a8054611f3090613b1d565b905011611f4c5760405180602001604052806000815250611f7b565b600a611f5783612ec7565b6009604051602001611f6b9392919061445f565b6040516020818303038152906040525b9050611fdf565b6000611f8c613028565b5111611fa75760405180602001604052806000815250611fdc565b611faf613028565b611fb883612ec7565b6009604051602001611fcc93929190614490565b6040516020818303038152906040525b90505b919050565b611fec612616565b73ffffffffffffffffffffffffffffffffffffffff1661200a6118c3565b73ffffffffffffffffffffffffffffffffffffffff1614612060576040517f08c379a000000000000000000000000000000000000000000000000000000000815260040161205790613c2d565b60405180910390fd5b80600e8190555050565b612072612616565b73ffffffffffffffffffffffffffffffffffffffff166120906118c3565b73ffffffffffffffffffffffffffffffffffffffff16146120e6576040517f08c379a00000000000000000000000000000000000000000000000000000000081526004016120dd90613c2d565b60405180910390fd5b60008266038d7ea4c680006120fb9190613ff2565b905060008273ffffffffffffffffffffffffffffffffffffffff1682604051612123906144f2565b60006040518083038185875af1925050503d8060008114612160576040519150601f19603f3d011682016040523d82523d6000602084013e612165565b606091505b505090508061217357600080fd5b50505050565b600c5481565b612187612616565b73ffffffffffffffffffffffffffffffffffffffff166121a56118c3565b73ffffffffffffffffffffffffffffffffffffffff16146121fb576040517f08c379a00000000000000000000000000000000000000000000000000000000081526004016121f290613c2d565b60405180910390fd5b600061220561166b565b905060006122116118c3565b73ffffffffffffffffffffffffffffffffffffffff1682604051612234906144f2565b60006040518083038185875af1925050503d8060008114612271576040519150601f19603f3d011682016040523d82523d6000602084013e612276565b606091505b505090508061228457600080fd5b5050565b612290612616565b73ffffffffffffffffffffffffffffffffffffffff166122ae6118c3565b73ffffffffffffffffffffffffffffffffffffffff1614612304576040517f08c379a00000000000000000000000000000000000000000000000000000000081526004016122fb90613c2d565b60405180910390fd5b806009908051906020019061231a9291906132ca565b5050565b6000600560008473ffffffffffffffffffffffffffffffffffffffff1673ffffffffffffffffffffffffffffffffffffffff16815260200190815260200160002060008373ffffffffffffffffffffffffffffffffffffffff1673ffffffffffffffffffffffffffffffffffffffff16815260200190815260200160002060009054906101000a900460ff16905092915050565b6123ba612616565b73ffffffffffffffffffffffffffffffffffffffff166123d86118c3565b73ffffffffffffffffffffffffffffffffffffffff161461242e576040517f08c379a000000000000000000000000000000000000000000000000000000000815260040161242590613c2d565b60405180910390fd5b80600a90805190602001906124449291906132ca565b5050565b612450612616565b73ffffffffffffffffffffffffffffffffffffffff1661246e6118c3565b73ffffffffffffffffffffffffffffffffffffffff16146124c4576040517f08c379a00000000000000000000000000000000000000000000000000000000081526004016124bb90613c2d565b60405180910390fd5b600073ffffffffffffffffffffffffffffffffffffffff168173ffffffffffffffffffffffffffffffffffffffff161415612534576040517f08c379a000000000000000000000000000000000000000000000000000000000815260040161252b90614579565b60405180910390fd5b61253d81612a5e565b50565b60007f01ffc9a7000000000000000000000000000000000000000000000000000000007bffffffffffffffffffffffffffffffffffffffffffffffffffffffff1916827bffffffffffffffffffffffffffffffffffffffffffffffffffffffff1916149050919050565b60008073ffffffffffffffffffffffffffffffffffffffff166002600084815260200190815260200160002060009054906101000a900473ffffffffffffffffffffffffffffffffffffffff1673ffffffffffffffffffffffffffffffffffffffff1614159050919050565b600033905090565b816004600083815260200190815260200160002060006101000a81548173ffffffffffffffffffffffffffffffffffffffff021916908373ffffffffffffffffffffffffffffffffffffffff160217905550808273ffffffffffffffffffffffffffffffffffffffff16612691836114a5565b73ffffffffffffffffffffffffffffffffffffffff167f8c5be1e5ebec7d5bd14f71427d1e84f3dd0314c0f7b2291e5b200ac8c7c3b92560405160405180910390a45050565b60006126e2826125aa565b612721576040517f08c379a00000000000000000000000000000000000000000000000000000000081526004016127189061460b565b60405180910390fd5b600061272c836114a5565b90508073ffffffffffffffffffffffffffffffffffffffff168473ffffffffffffffffffffffffffffffffffffffff16148061276e575061276d818561231e565b5b806127ac57508373ffffffffffffffffffffffffffffffffffffffff1661279484610ba4565b73ffffffffffffffffffffffffffffffffffffffff16145b91505092915050565b8273ffffffffffffffffffffffffffffffffffffffff166127d5826114a5565b73ffffffffffffffffffffffffffffffffffffffff161461282b576040517f08c379a00000000000000000000000000000000000000000000000000000000081526004016128229061469d565b60405180910390fd5b600073ffffffffffffffffffffffffffffffffffffffff168273ffffffffffffffffffffffffffffffffffffffff16141561289b576040517f08c379a00000000000000000000000000000000000000000000000000000000081526004016128929061472f565b60405180910390fd5b6128a68383836130ba565b6128b160008261261e565b6001600360008573ffffffffffffffffffffffffffffffffffffffff1673ffffffffffffffffffffffffffffffffffffffff1681526020019081526020016000206000828254612901919061474f565b925050819055506001600360008473ffffffffffffffffffffffffffffffffffffffff1673ffffffffffffffffffffffffffffffffffffffff16815260200190815260200160002060008282546129589190613e9e565b92505081905550816002600083815260200190815260200160002060006101000a81548173ffffffffffffffffffffffffffffffffffffffff021916908373ffffffffffffffffffffffffffffffffffffffff160217905550808273ffffffffffffffffffffffffffffffffffffffff168473ffffffffffffffffffffffffffffffffffffffff167fddf252ad1be2c89b69c2b068fc378daa952ba7f163c4a11628f55a4df523b3ef60405160405180910390a4612a178383836130bf565b505050565b600081600001549050919050565b612a448282604051806020016040528060008152506130c4565b5050565b6001816000016000828254019250508190555050565b6000600660009054906101000a900473ffffffffffffffffffffffffffffffffffffffff16905081600660006101000a81548173ffffffffffffffffffffffffffffffffffffffff021916908373ffffffffffffffffffffffffffffffffffffffff1602179055508173ffffffffffffffffffffffffffffffffffffffff168173ffffffffffffffffffffffffffffffffffffffff167f8be0079c531659141344cd1fd0a4f28419497f9722a3daafe3b4186f6b6457e060405160405180910390a35050565b600073ffffffffffffffffffffffffffffffffffffffff168273ffffffffffffffffffffffffffffffffffffffff161415612b94576040517f08c379a0000000000000000000000000000000000000000000000000000000008152600401612b8b906147cf565b60405180910390fd5b612b9d816125aa565b15612bdd576040517f08c379a0000000000000000000000000000000000000000000000000000000008152600401612bd49061483b565b60405180910390fd5b612be9600083836130ba565b6001600360008473ffffffffffffffffffffffffffffffffffffffff1673ffffffffffffffffffffffffffffffffffffffff1681526020019081526020016000206000828254612c399190613e9e565b92505081905550816002600083815260200190815260200160002060006101000a81548173ffffffffffffffffffffffffffffffffffffffff021916908373ffffffffffffffffffffffffffffffffffffffff160217905550808273ffffffffffffffffffffffffffffffffffffffff16600073ffffffffffffffffffffffffffffffffffffffff167fddf252ad1be2c89b69c2b068fc378daa952ba7f163c4a11628f55a4df523b3ef60405160405180910390a4612cfa600083836130bf565b5050565b8173ffffffffffffffffffffffffffffffffffffffff168373ffffffffffffffffffffffffffffffffffffffff161415612d6d576040517f08c379a0000000000000000000000000000000000000000000000000000000008152600401612d64906148a7565b60405180910390fd5b80600560008573ffffffffffffffffffffffffffffffffffffffff1673ffffffffffffffffffffffffffffffffffffffff16815260200190815260200160002060008473ffffffffffffffffffffffffffffffffffffffff1673ffffffffffffffffffffffffffffffffffffffff16815260200190815260200160002060006101000a81548160ff0219169083151502179055508173ffffffffffffffffffffffffffffffffffffffff168373ffffffffffffffffffffffffffffffffffffffff167f17307eab39ab6107e8899845ad3d59bd9653f200f220920489ca2b5937696c3183604051612e5e9190613421565b60405180910390a3505050565b612e768484846127b5565b612e828484848461311f565b612ec1576040517f08c379a0000000000000000000000000000000000000000000000000000000008152600401612eb890614939565b60405180910390fd5b50505050565b60606000821415612f0f576040518060400160405280600181526020017f30000000000000000000000000000000000000000000000000000000000000008152509050613023565b600082905060005b60008214612f41578080612f2a90614124565b915050600a82612f3a9190614988565b9150612f17565b60008167ffffffffffffffff811115612f5d57612f5c613796565b5b6040519080825280601f01601f191660200182016040528015612f8f5781602001600182028036833780820191505090505b5090505b6000851461301c57600182612fa8919061474f565b9150600a85612fb791906149b9565b6030612fc39190613e9e565b60f81b818381518110612fd957612fd86149ea565b5b60200101907effffffffffffffffffffffffffffffffffffffffffffffffffffffffffffff1916908160001a905350600a856130159190614988565b9450612f93565b8093505050505b919050565b60606008805461303790613b1d565b80601f016020809104026020016040519081016040528092919081815260200182805461306390613b1d565b80156130b05780601f10613085576101008083540402835291602001916130b0565b820191906000526020600020905b81548152906001019060200180831161309357829003601f168201915b5050505050905090565b505050565b505050565b6130ce8383612b24565b6130db600084848461311f565b61311a576040517f08c379a000000000000000000000000000000000000000000000000000000000815260040161311190614939565b60405180910390fd5b505050565b60006131408473ffffffffffffffffffffffffffffffffffffffff166132a7565b1561329a578373ffffffffffffffffffffffffffffffffffffffff1663150b7a02613169612616565b8786866040518563ffffffff1660e01b815260040161318b9493929190614a6e565b6020604051808303816000875af19250505080156131c757506040513d601f19601f820116820180604052508101906131c49190614acf565b60015b61324a573d80600081146131f7576040519150601f19603f3d011682016040523d82523d6000602084013e6131fc565b606091505b50600081511415613242576040517f08c379a000000000000000000000000000000000000000000000000000000000815260040161323990614939565b60405180910390fd5b805181602001fd5b63150b7a0260e01b7bffffffffffffffffffffffffffffffffffffffffffffffffffffffff1916817bffffffffffffffffffffffffffffffffffffffffffffffffffffffff19161491505061329f565b600190505b949350505050565b6000808273ffffffffffffffffffffffffffffffffffffffff163b119050919050565b8280546132d690613b1d565b90600052602060002090601f0160209004810192826132f8576000855561333f565b82601f1061331157805160ff191683800117855561333f565b8280016001018555821561333f579182015b8281111561333e578251825591602001919060010190613323565b5b50905061334c9190613350565b5090565b5b80821115613369576000816000905550600101613351565b5090565b6000604051905090565b600080fd5b600080fd5b60007fffffffff0000000000000000000000000000000000000000000000000000000082169050919050565b6133b681613381565b81146133c157600080fd5b50565b6000813590506133d3816133ad565b92915050565b6000602082840312156133ef576133ee613377565b5b60006133fd848285016133c4565b91505092915050565b60008115159050919050565b61341b81613406565b82525050565b60006020820190506134366000830184613412565b92915050565b600081519050919050565b600082825260208201905092915050565b60005b8381101561347657808201518184015260208101905061345b565b83811115613485576000848401525b50505050565b6000601f19601f8301169050919050565b60006134a78261343c565b6134b18185613447565b93506134c1818560208601613458565b6134ca8161348b565b840191505092915050565b600060208201905081810360008301526134ef818461349c565b905092915050565b6000819050919050565b61350a816134f7565b811461351557600080fd5b50565b60008135905061352781613501565b92915050565b60006020828403121561354357613542613377565b5b600061355184828501613518565b91505092915050565b600073ffffffffffffffffffffffffffffffffffffffff82169050919050565b60006135858261355a565b9050919050565b6135958161357a565b82525050565b60006020820190506135b0600083018461358c565b92915050565b6135bf8161357a565b81146135ca57600080fd5b50565b6000813590506135dc816135b6565b92915050565b600080604083850312156135f9576135f8613377565b5b6000613607858286016135cd565b925050602061361885828601613518565b9150509250929050565b61362b816134f7565b82525050565b60006020820190506136466000830184613622565b92915050565b60008060006060848603121561366557613664613377565b5b6000613673868287016135cd565b9350506020613684868287016135cd565b925050604061369586828701613518565b9150509250925092565b6000602082840312156136b5576136b4613377565b5b60006136c3848285016135cd565b91505092915050565b600080600080608085870312156136e6576136e5613377565b5b60006136f487828801613518565b945050602061370587828801613518565b935050604061371687828801613518565b925050606061372787828801613518565b91505092959194509250565b61373c81613406565b811461374757600080fd5b50565b60008135905061375981613733565b92915050565b60006020828403121561377557613774613377565b5b60006137838482850161374a565b91505092915050565b600080fd5b600080fd5b7f4e487b7100000000000000000000000000000000000000000000000000000000600052604160045260246000fd5b6137ce8261348b565b810181811067ffffffffffffffff821117156137ed576137ec613796565b5b80604052505050565b600061380061336d565b905061380c82826137c5565b919050565b600067ffffffffffffffff82111561382c5761382b613796565b5b6138358261348b565b9050602081019050919050565b82818337600083830152505050565b600061386461385f84613811565b6137f6565b9050828152602081018484840111156138805761387f613791565b5b61388b848285613842565b509392505050565b600082601f8301126138a8576138a761378c565b5b81356138b8848260208601613851565b91505092915050565b6000602082840312156138d7576138d6613377565b5b600082013567ffffffffffffffff8111156138f5576138f461337c565b5b61390184828501613893565b91505092915050565b6000806040838503121561392157613920613377565b5b600061392f858286016135cd565b92505060206139408582860161374a565b9150509250929050565b600067ffffffffffffffff82111561396557613964613796565b5b61396e8261348b565b9050602081019050919050565b600061398e6139898461394a565b6137f6565b9050828152602081018484840111156139aa576139a9613791565b5b6139b5848285613842565b509392505050565b600082601f8301126139d2576139d161378c565b5b81356139e284826020860161397b565b91505092915050565b60008060008060808587031215613a0557613a04613377565b5b6000613a13878288016135cd565b9450506020613a24878288016135cd565b9350506040613a3587828801613518565b925050606085013567ffffffffffffffff811115613a5657613a5561337c565b5b613a62878288016139bd565b91505092959194509250565b60008060408385031215613a8557613a84613377565b5b6000613a9385828601613518565b9250506020613aa4858286016135cd565b9150509250929050565b60008060408385031215613ac557613ac4613377565b5b6000613ad3858286016135cd565b9250506020613ae4858286016135cd565b9150509250929050565b7f4e487b7100000000000000000000000000000000000000000000000000000000600052602260045260246000fd5b60006002820490506001821680613b3557607f821691505b60208210811415613b4957613b48613aee565b5b50919050565b7f4552433732313a20617070726f76656420717565727920666f72206e6f6e657860008201527f697374656e7420746f6b656e0000000000000000000000000000000000000000602082015250565b6000613bab602c83613447565b9150613bb682613b4f565b604082019050919050565b60006020820190508181036000830152613bda81613b9e565b9050919050565b7f4f776e61626c653a2063616c6c6572206973206e6f7420746865206f776e6572600082015250565b6000613c17602083613447565b9150613c2282613be1565b602082019050919050565b60006020820190508181036000830152613c4681613c0a565b9050919050565b7f4552433732313a20617070726f76616c20746f2063757272656e74206f776e6560008201527f7200000000000000000000000000000000000000000000000000000000000000602082015250565b6000613ca9602183613447565b9150613cb482613c4d565b604082019050919050565b60006020820190508181036000830152613cd881613c9c565b9050919050565b7f4552433732313a20617070726f76652063616c6c6572206973206e6f74206f7760008201527f6e6572206e6f7220617070726f76656420666f7220616c6c0000000000000000602082015250565b6000613d3b603883613447565b9150613d4682613cdf565b604082019050919050565b60006020820190508181036000830152613d6a81613d2e565b9050919050565b7f4552433732313a207472616e736665722063616c6c6572206973206e6f74206f60008201527f776e6572206e6f7220617070726f766564000000000000000000000000000000602082015250565b6000613dcd603183613447565b9150613dd882613d71565b604082019050919050565b60006020820190508181036000830152613dfc81613dc0565b9050919050565b7f546865207075626c69632073616c65206973206e6f7420656e61626c65642100600082015250565b6000613e39601f83613447565b9150613e4482613e03565b602082019050919050565b60006020820190508181036000830152613e6881613e2c565b9050919050565b7f4e487b7100000000000000000000000000000000000000000000000000000000600052601160045260246000fd5b6000613ea9826134f7565b9150613eb4836134f7565b9250827fffffffffffffffffffffffffffffffffffffffffffffffffffffffffffffffff03821115613ee957613ee8613e6f565b5b828201905092915050565b7f457863656564206d617820616d6f756e74000000000000000000000000000000600082015250565b6000613f2a601183613447565b9150613f3582613ef4565b602082019050919050565b60006020820190508181036000830152613f5981613f1d565b9050919050565b7f546f6f206d616e79207265717565737473206f72207a65726f2072657175657360008201527f7400000000000000000000000000000000000000000000000000000000000000602082015250565b6000613fbc602183613447565b9150613fc782613f60565b604082019050919050565b60006020820190508181036000830152613feb81613faf565b9050919050565b6000613ffd826134f7565b9150614008836134f7565b9250817fffffffffffffffffffffffffffffffffffffffffffffffffffffffffffffffff048311821515161561404157614040613e6f565b5b828202905092915050565b7f4e6f7420656e6f75676820657468000000000000000000000000000000000000600082015250565b6000614082600e83613447565b915061408d8261404c565b602082019050919050565b600060208201905081810360008301526140b181614075565b9050919050565b7f457863656564206d617820616d6f756e742070657220706572736f6e00000000600082015250565b60006140ee601c83613447565b91506140f9826140b8565b602082019050919050565b6000602082019050818103600083015261411d816140e1565b9050919050565b600061412f826134f7565b91507fffffffffffffffffffffffffffffffffffffffffffffffffffffffffffffffff82141561416257614161613e6f565b5b600182019050919050565b7f4552433732313a206f776e657220717565727920666f72206e6f6e657869737460008201527f656e7420746f6b656e0000000000000000000000000000000000000000000000602082015250565b60006141c9602983613447565b91506141d48261416d565b604082019050919050565b600060208201905081810360008301526141f8816141bc565b9050919050565b7f4552433732313a2062616c616e636520717565727920666f7220746865207a6560008201527f726f206164647265737300000000000000000000000000000000000000000000602082015250565b600061425b602a83613447565b9150614266826141ff565b604082019050919050565b6000602082019050818103600083015261428a8161424e565b9050919050565b7f7a65726f20726571756573740000000000000000000000000000000000000000600082015250565b60006142c7600c83613447565b91506142d282614291565b602082019050919050565b600060208201905081810360008301526142f6816142ba565b9050919050565b7f746869732061646472657373206973206e6f742077686974656c69737420757360008201527f6572000000000000000000000000000000000000000000000000000000000000602082015250565b6000614359602283613447565b9150614364826142fd565b604082019050919050565b600060208201905081810360008301526143888161434c565b9050919050565b600081905092915050565b60008190508160005260206000209050919050565b600081546143bc81613b1d565b6143c6818661438f565b945060018216600081146143e157600181146143f257614425565b60ff19831686528186019350614425565b6143fb8561439a565b60005b8381101561441d578154818901526001820191506020810190506143fe565b838801955050505b50505092915050565b60006144398261343c565b614443818561438f565b9350614453818560208601613458565b80840191505092915050565b600061446b82866143af565b9150614477828561442e565b915061448382846143af565b9150819050949350505050565b600061449c828661442e565b91506144a8828561442e565b91506144b482846143af565b9150819050949350505050565b600081905092915050565b50565b60006144dc6000836144c1565b91506144e7826144cc565b600082019050919050565b60006144fd826144cf565b9150819050919050565b7f4f776e61626c653a206e6577206f776e657220697320746865207a65726f206160008201527f6464726573730000000000000000000000000000000000000000000000000000602082015250565b6000614563602683613447565b915061456e82614507565b604082019050919050565b6000602082019050818103600083015261459281614556565b9050919050565b7f4552433732313a206f70657261746f7220717565727920666f72206e6f6e657860008201527f697374656e7420746f6b656e0000000000000000000000000000000000000000602082015250565b60006145f5602c83613447565b915061460082614599565b604082019050919050565b60006020820190508181036000830152614624816145e8565b9050919050565b7f4552433732313a207472616e736665722066726f6d20696e636f72726563742060008201527f6f776e6572000000000000000000000000000000000000000000000000000000602082015250565b6000614687602583613447565b91506146928261462b565b604082019050919050565b600060208201905081810360008301526146b68161467a565b9050919050565b7f4552433732313a207472616e7366657220746f20746865207a65726f2061646460008201527f7265737300000000000000000000000000000000000000000000000000000000602082015250565b6000614719602483613447565b9150614724826146bd565b604082019050919050565b600060208201905081810360008301526147488161470c565b9050919050565b600061475a826134f7565b9150614765836134f7565b92508282101561477857614777613e6f565b5b828203905092915050565b7f4552433732313a206d696e7420746f20746865207a65726f2061646472657373600082015250565b60006147b9602083613447565b91506147c482614783565b602082019050919050565b600060208201905081810360008301526147e8816147ac565b9050919050565b7f4552433732313a20746f6b656e20616c7265616479206d696e74656400000000600082015250565b6000614825601c83613447565b9150614830826147ef565b602082019050919050565b6000602082019050818103600083015261485481614818565b9050919050565b7f4552433732313a20617070726f766520746f2063616c6c657200000000000000600082015250565b6000614891601983613447565b915061489c8261485b565b602082019050919050565b600060208201905081810360008301526148c081614884565b9050919050565b7f4552433732313a207472616e7366657220746f206e6f6e20455243373231526560008201527f63656976657220696d706c656d656e7465720000000000000000000000000000602082015250565b6000614923603283613447565b915061492e826148c7565b604082019050919050565b6000602082019050818103600083015261495281614916565b9050919050565b7f4e487b7100000000000000000000000000000000000000000000000000000000600052601260045260246000fd5b6000614993826134f7565b915061499e836134f7565b9250826149ae576149ad614959565b5b828204905092915050565b60006149c4826134f7565b91506149cf836134f7565b9250826149df576149de614959565b5b828206905092915050565b7f4e487b7100000000000000000000000000000000000000000000000000000000600052603260045260246000fd5b600081519050919050565b600082825260208201905092915050565b6000614a4082614a19565b614a4a8185614a24565b9350614a5a818560208601613458565b614a638161348b565b840191505092915050565b6000608082019050614a83600083018761358c565b614a90602083018661358c565b614a9d6040830185613622565b8181036060830152614aaf8184614a35565b905095945050505050565b600081519050614ac9816133ad565b92915050565b600060208284031215614ae557614ae4613377565b5b6000614af384828501614aba565b9150509291505056fea26469706673582212202f3f6c717452787598ab9ac9485f96e229c084d2b44487cdbb5a281d6f8aa25964736f6c634300080a0033",
  "immutableReferences": {},
  "source": "pragma solidity >=0.7.0 <0.9.0;\n\nimport \"@openzeppelin/contracts/token/ERC721/ERC721.sol\";\nimport \"@openzeppelin/contracts/utils/Counters.sol\";\nimport \"@openzeppelin/contracts/access/Ownable.sol\";\n\n/**\n * @title nft reveal version(0.0.1)\n * @author sykang4966@naver.com\n */\n\ncontract GelmalNftReveal is ERC721, Ownable {\n    using Strings for uint256;\n    using Counters for Counters.Counter;\n    Counters.Counter private _tokenIds;\n\n    string public baseURI; //  url(dir)\n    string public baseExtension = \".json\"; // \n    string public notRevealedUri; //  url(dir)\n\n    uint256 public price = 0.05 ether; // \n    uint256 public maxSupply; //  \n    uint256 public maxMintAmount; //    \n    uint256 public maxMintPerSale; //    \n\n    bool public revealed = false; // \n    bool public publicMintEnabled = false; //   \n    bool public lockNft = false; // lock\n\n    mapping(address => bool) whitelisted;\n\n    constructor(\n        string memory _name,\n        string memory _symbol\n    ) ERC721(_name, _symbol) { }\n\n    // internal\n\n    function _baseURI() internal view virtual override returns (string memory) {\n        return baseURI;\n    }\n\n    // public method\n\n    function getContractBalance() public view\n    returns(uint256){\n        return address(this).balance;\n    }\n\n    function getYesOrNoWhiteList(address _user) public view\n    returns (bool){\n        return whitelisted[_user];\n    }\n    function transferFrom(\n        address from,\n        address to,\n        uint256 tokenId\n    ) public virtual override {\n        //solhint-disable-next-line max-line-length\n        require(lockNft == true);\n        require(_isApprovedOrOwner(_msgSender(), tokenId), \"ERC721: transfer caller is not owner nor approved\");\n\n        _transfer(from, to, tokenId);\n    }\n    function publicMint(uint256 _requestedAmount) public payable {\n        uint256 nowTokenIds = _tokenIds.current();\n        require(publicMintEnabled, \"The public sale is not enabled!\"); //   \n        require(nowTokenIds + _requestedAmount <= maxSupply + 1, \"Exceed max amount\"); //   \n        require(_requestedAmount > 0 && _requestedAmount <= maxMintAmount, \"Too many requests or zero request\"); //   ( tx)\n        require(msg.value == price * _requestedAmount, \"Not enough eth\"); //  \n        require(balanceOf(msg.sender) + _requestedAmount <= maxMintPerSale, \"Exceed max amount per person\");\n\n        for (uint256 i = 1; i <= _requestedAmount; i++) {\n            _safeMint(msg.sender, nowTokenIds + 1);\n            _tokenIds.increment();\n        }\n    }\n    function whiteListSale(uint256 _requestedAmount) public payable {\n        uint256 nowTokenIds = _tokenIds.current();\n        require(getYesOrNoWhiteList(msg.sender), \"this address is not whitelist user\");\n        require(publicMintEnabled, \"The public sale is not enabled!\"); //   \n        require(nowTokenIds + _requestedAmount <= maxSupply + 1, \"Exceed max amount\"); //   \n        require(_requestedAmount > 0 && _requestedAmount <= maxMintAmount, \"Too many requests or zero request\"); //   ( tx)\n        require(msg.value == price * _requestedAmount, \"Not enough eth\"); //  \n        require(balanceOf(msg.sender) + _requestedAmount <= maxMintPerSale, \"Exceed max amount per person\");\n\n        for (uint256 i = 1; i <= _requestedAmount; i++) {\n            _safeMint(msg.sender, nowTokenIds + 1);\n            _tokenIds.increment();\n        }\n    }\n    function airDropMint(address _reciever, uint256 _requestedCount) public onlyOwner{\n        require(_requestedCount > 0, \"zero request\");\n        uint256 nowTokenIds = _tokenIds.current();\n        for(uint256 i = 0; i < _requestedCount; i++) {\n            _mint(_reciever, nowTokenIds + i);\n            _tokenIds.increment();\n        }\n    }\n    function tokenURI(uint256 _tokenId) public view virtual override\n    returns (string memory)\t{\n        if(revealed == false) { //    \n            return bytes(notRevealedUri).length > 0\n            ? string(abi.encodePacked(notRevealedUri, _tokenId.toString(), baseExtension))\n            : \"\";\n        }\n\n        return bytes(_baseURI()).length > 0\n        ? string(abi.encodePacked(_baseURI(), _tokenId.toString(), baseExtension))\n        : \"\";\n    }\n\n    //only owner method\n\n    //util\n    function reveal(bool _type) public onlyOwner {\n        revealed = _type;\n    }\n    function setLockNft(bool _type) public onlyOwner {\n        lockNft = _type;\n    }\n    function setSaleState(bool _type) public onlyOwner {\n        publicMintEnabled = _type;\n    }\n    /**\n     * title set public sale\n     * param uint256 _maxSupply : max amount of minting\n     * param uint256 _maxMintAmount : can be bought at one tx\n     * param uint256 _maxMintPerSale : can be bought at personal in this contract\n    */\n    function setupPublicSale(uint256 _price, uint256 _maxSupply, uint256 _maxMintAmount, uint256 _maxMintPerSale) public onlyOwner {\n        price = 0.001 ether * _price;\n        maxSupply = _maxSupply;\n        maxMintAmount = _maxMintAmount;\n        maxMintPerSale = _maxMintPerSale;\n    }\n    function setPrice(uint256 _newPrice) public onlyOwner {\n        price = 0.001 ether * _newPrice;\n    }\n    function setMaxMintAmount(uint256 _newMaxMintAmount) public onlyOwner {\n        maxMintAmount = _newMaxMintAmount;\n    }\n    function setMaxSupply(uint256 _maxSupply) public onlyOwner {\n        maxSupply = _maxSupply;\n    }\n    function setMaxMintPerSale(uint256 _maxMintPerSale) public onlyOwner {\n        maxMintPerSale = _maxMintPerSale;\n    }\n    //url\n    function setNotRevealedURI(string memory _notRevealedURI) public onlyOwner {\n        notRevealedUri = _notRevealedURI;\n    }\n    function setBaseURI(string memory _newBaseURI) public onlyOwner {\n        baseURI = _newBaseURI;\n    }\n    function setBaseExtension(string memory _newBaseExtension) public onlyOwner {\n        baseExtension = _newBaseExtension;\n    }\n    //whitelist\n    function whitelistUser(address _user) public onlyOwner {\n        whitelisted[_user] = true;\n    }\n    function removeWhitelistUser(address _user) public onlyOwner {\n        whitelisted[_user] = false;\n    }\n\n    function withdrawToMe() public payable onlyOwner {\n        uint256 amountOfEth = getContractBalance();\n        (bool ms, ) = payable(owner()).call{value: amountOfEth}(\"\");\n        require(ms);\n    }\n\n    function withdrawToOther(uint256 _amount, address _receiver) public payable onlyOwner {\n        uint256 amount = 0.001 ether * _amount;\n        (bool os, ) = payable(_receiver).call{value: amount}(\"\");\n        require(os);\n    }\n}",
  "sourcePath": "/Users/sykang/private-project/nft/contracts/GelmalNftReveal.sol",
  "compiler": {
    "name": "solc",
    "version": "0.8.10+commit.fc410830.Emscripten.clang"
  },
  "schemaVersion": "3.4.7",
  "updatedAt": "2022-06-03T08:25:38.431Z",
  "devdoc": {
    "author": "sykang4966@naver.com",
    "kind": "dev",
    "methods": {
      "approve(address,uint256)": {
        "details": "See {IERC721-approve}."
      },
      "balanceOf(address)": {
        "details": "See {IERC721-balanceOf}."
      },
      "getApproved(uint256)": {
        "details": "See {IERC721-getApproved}."
      },
      "isApprovedForAll(address,address)": {
        "details": "See {IERC721-isApprovedForAll}."
      },
      "name()": {
        "details": "See {IERC721Metadata-name}."
      },
      "owner()": {
        "details": "Returns the address of the current owner."
      },
      "ownerOf(uint256)": {
        "details": "See {IERC721-ownerOf}."
      },
      "renounceOwnership()": {
        "details": "Leaves the contract without owner. It will not be possible to call `onlyOwner` functions anymore. Can only be called by the current owner. NOTE: Renouncing ownership will leave the contract without an owner, thereby removing any functionality that is only available to the owner."
      },
      "safeTransferFrom(address,address,uint256)": {
        "details": "See {IERC721-safeTransferFrom}."
      },
      "safeTransferFrom(address,address,uint256,bytes)": {
        "details": "See {IERC721-safeTransferFrom}."
      },
      "setApprovalForAll(address,bool)": {
        "details": "See {IERC721-setApprovalForAll}."
      },
      "supportsInterface(bytes4)": {
        "details": "See {IERC165-supportsInterface}."
      },
      "symbol()": {
        "details": "See {IERC721Metadata-symbol}."
      },
      "transferFrom(address,address,uint256)": {
        "details": "See {IERC721-transferFrom}."
      },
      "transferOwnership(address)": {
        "details": "Transfers ownership of the contract to a new account (`newOwner`). Can only be called by the current owner."
      }
    },
    "title": "nft reveal version(0.0.1)",
    "version": 1
  },
  "userdoc": {
    "kind": "user",
    "methods": {
      "setupPublicSale(uint256,uint256,uint256,uint256)": {
        "notice": "title set public sale param uint256 _maxSupply : max amount of minting param uint256 _maxMintAmount : can be bought at one tx param uint256 _maxMintPerSale : can be bought at personal in this contract"
      }
    },
    "version": 1
  }
}